{"abi":[{"type":"constructor","inputs":[],"stateMutability":"nonpayable"},{"type":"function","name":"DAILY","inputs":[],"outputs":[{"name":"","type":"uint8","internalType":"uint8"}],"stateMutability":"view"},{"type":"function","name":"DOMAIN_SEPARATOR","inputs":[],"outputs":[{"name":"","type":"bytes32","internalType":"bytes32"}],"stateMutability":"view"},{"type":"function","name":"MONTHLY","inputs":[],"outputs":[{"name":"","type":"uint8","internalType":"uint8"}],"stateMutability":"view"},{"type":"function","name":"UPGRADE_INTERFACE_VERSION","inputs":[],"outputs":[{"name":"","type":"string","internalType":"string"}],"stateMutability":"view"},{"type":"function","name":"WEEKLY","inputs":[],"outputs":[{"name":"","type":"uint8","internalType":"uint8"}],"stateMutability":"view"},{"type":"function","name":"depositGndm","inputs":[{"name":"poolType","type":"uint8","internalType":"uint8"},{"name":"amount","type":"uint256","internalType":"uint256"}],"outputs":[],"stateMutability":"nonpayable"},{"type":"function","name":"depositUsdc","inputs":[{"name":"poolType","type":"uint8","internalType":"uint8"},{"name":"amount","type":"uint256","internalType":"uint256"}],"outputs":[],"stateMutability":"nonpayable"},{"type":"function","name":"distribute","inputs":[{"name":"poolType","type":"uint8","internalType":"uint8"},{"name":"winners","type":"address[]","internalType":"address[]"},{"name":"gndmShares","type":"uint256[]","internalType":"uint256[]"},{"name":"usdcShares","type":"uint256[]","internalType":"uint256[]"},{"name":"signature","type":"bytes","internalType":"bytes"}],"outputs":[],"stateMutability":"nonpayable"},{"type":"function","name":"distributionNonce","inputs":[],"outputs":[{"name":"","type":"uint256","internalType":"uint256"}],"stateMutability":"view"},{"type":"function","name":"eip712Domain","inputs":[],"outputs":[{"name":"fields","type":"bytes1","internalType":"bytes1"},{"name":"name","type":"string","internalType":"string"},{"name":"version","type":"string","internalType":"string"},{"name":"chainId","type":"uint256","internalType":"uint256"},{"name":"verifyingContract","type":"address","internalType":"address"},{"name":"salt","type":"bytes32","internalType":"bytes32"},{"name":"extensions","type":"uint256[]","internalType":"uint256[]"}],"stateMutability":"view"},{"type":"function","name":"emergencyWithdraw","inputs":[{"name":"token","type":"address","internalType":"address"},{"name":"amount","type":"uint256","internalType":"uint256"}],"outputs":[],"stateMutability":"nonpayable"},{"type":"function","name":"getPool","inputs":[{"name":"poolType","type":"uint8","internalType":"uint8"}],"outputs":[{"name":"","type":"tuple","internalType":"struct PrizePool.Pool","components":[{"name":"gndmBalance","type":"uint256","internalType":"uint256"},{"name":"usdcBalance","type":"uint256","internalType":"uint256"},{"name":"lastDistributed","type":"uint64","internalType":"uint64"}]}],"stateMutability":"view"},{"type":"function","name":"gndm","inputs":[],"outputs":[{"name":"","type":"address","internalType":"contract IERC20"}],"stateMutability":"view"},{"type":"function","name":"initialize","inputs":[{"name":"owner_","type":"address","internalType":"address"},{"name":"gndmAddress_","type":"address","internalType":"address"},{"name":"usdcAddress_","type":"address","internalType":"address"}],"outputs":[],"stateMutability":"nonpayable"},{"type":"function","name":"owner","inputs":[],"outputs":[{"name":"","type":"address","internalType":"address"}],"stateMutability":"view"},{"type":"function","name":"pools","inputs":[{"name":"","type":"uint8","internalType":"uint8"}],"outputs":[{"name":"gndmBalance","type":"uint256","internalType":"uint256"},{"name":"usdcBalance","type":"uint256","internalType":"uint256"},{"name":"lastDistributed","type":"uint64","internalType":"uint64"}],"stateMutability":"view"},{"type":"function","name":"proxiableUUID","inputs":[],"outputs":[{"name":"","type":"bytes32","internalType":"bytes32"}],"stateMutability":"view"},{"type":"function","name":"renounceOwnership","inputs":[],"outputs":[],"stateMutability":"nonpayable"},{"type":"function","name":"transferOwnership","inputs":[{"name":"newOwner","type":"address","internalType":"address"}],"outputs":[],"stateMutability":"nonpayable"},{"type":"function","name":"upgradeToAndCall","inputs":[{"name":"newImplementation","type":"address","internalType":"address"},{"name":"data","type":"bytes","internalType":"bytes"}],"outputs":[],"stateMutability":"payable"},{"type":"function","name":"usdc","inputs":[],"outputs":[{"name":"","type":"address","internalType":"contract IERC20"}],"stateMutability":"view"},{"type":"event","name":"Deposited","inputs":[{"name":"poolType","type":"uint8","indexed":true,"internalType":"uint8"},{"name":"token","type":"address","indexed":true,"internalType":"address"},{"name":"amount","type":"uint256","indexed":false,"internalType":"uint256"}],"anonymous":false},{"type":"event","name":"Distributed","inputs":[{"name":"poolType","type":"uint8","indexed":true,"internalType":"uint8"},{"name":"gndmTotal","type":"uint256","indexed":false,"internalType":"uint256"},{"name":"usdcTotal","type":"uint256","indexed":false,"internalType":"uint256"},{"name":"winnerCount","type":"uint256","indexed":false,"internalType":"uint256"}],"anonymous":false},{"type":"event","name":"EIP712DomainChanged","inputs":[],"anonymous":false},{"type":"event","name":"Initialized","inputs":[{"name":"version","type":"uint64","indexed":false,"internalType":"uint64"}],"anonymous":false},{"type":"event","name":"OwnershipTransferred","inputs":[{"name":"previousOwner","type":"address","indexed":true,"internalType":"address"},{"name":"newOwner","type":"address","indexed":true,"internalType":"address"}],"anonymous":false},{"type":"event","name":"Upgraded","inputs":[{"name":"implementation","type":"address","indexed":true,"internalType":"address"}],"anonymous":false},{"type":"error","name":"AddressEmptyCode","inputs":[{"name":"target","type":"address","internalType":"address"}]},{"type":"error","name":"ECDSAInvalidSignature","inputs":[]},{"type":"error","name":"ECDSAInvalidSignatureLength","inputs":[{"name":"length","type":"uint256","internalType":"uint256"}]},{"type":"error","name":"ECDSAInvalidSignatureS","inputs":[{"name":"s","type":"bytes32","internalType":"bytes32"}]},{"type":"error","name":"ERC1967InvalidImplementation","inputs":[{"name":"implementation","type":"address","internalType":"address"}]},{"type":"error","name":"ERC1967NonPayable","inputs":[]},{"type":"error","name":"FailedCall","inputs":[]},{"type":"error","name":"InvalidInitialization","inputs":[]},{"type":"error","name":"NotInitializing","inputs":[]},{"type":"error","name":"OwnableInvalidOwner","inputs":[{"name":"owner","type":"address","internalType":"address"}]},{"type":"error","name":"OwnableUnauthorizedAccount","inputs":[{"name":"account","type":"address","internalType":"address"}]},{"type":"error","name":"UUPSUnauthorizedCallContext","inputs":[]},{"type":"error","name":"UUPSUnsupportedProxiableUUID","inputs":[{"name":"slot","type":"bytes32","internalType":"bytes32"}]}],"bytecode":{"object":"0x60a080604052346100c257306080525f516020611e065f395f51905f525460ff8160401c166100b3576002600160401b03196001600160401b03821601610060575b604051611d3f90816100c7823960805181818161121901526112bc0152f35b6001600160401b0319166001600160401b039081175f516020611e065f395f51905f525581527fc7f505b2f371ae2175ee4913f4499e1f2633a7b5936321eed1cdaeb6115181d290602090a15f80610041565b63f92ee8a960e01b5f5260045ffd5b5f80fdfe6080806040526004361015610012575f80fd5b5f3560e01c90816301a248d81461156d5750806319fe14ce146115525780633644e515146115305780633e1a7107146114605780633e413bee146114385780634f1ef2861461126d57806352d1902d146112075780635fe62d04146111ea578063715018a6146111835780637a68d1b7146111695780637f31f58a1461114e57806384b0196e146110985780638da5cb5b1461106457806395ccea6714610f73578063ad3cb1cc14610f28578063b8992aff14610826578063c0c53b8b1461031f578063ccd7938214610294578063df7f7b5614610184578063f2fde38b146101595763fb87a63514610103575f80fd5b346101555760203660031901126101555760ff61011e61158f565b165f526002602052606060405f208054906001600160401b0360026001830154920154169060405192835260208301526040820152f35b5f80fd5b346101555760203660031901126101555761018261017561159f565b61017d611826565b6117b5565b005b346101555760403660031901126101555761019d61158f565b60ff60243591166101b1600282111561168a565b6001546040516323b872dd60e01b81523360048201523060248201526044810184905290602090829060649082905f906001600160a01b03165af1801561028957610203915f9161025a575b506116ee565b805f526002602052600160405f200161021d83825461173a565b90556001546040519283526001600160a01b0316917fdf579713dc5e1365236e32a311de62e14a718d48397680deab3be0f9f9f0d69390602090a3005b61027c915060203d602011610282575b61027481836115d0565b8101906116d6565b846101fd565b503d61026a565b6040513d5f823e3d90fd5b346101555760203660031901126101555760ff6102af61158f565b5f604080516102bd816115b5565b8281528260208201520152165f526002602052606060405f206001600160401b036040516102ea816115b5565b825492838252604083600260018401549360208601948552015416920191825260405193845251602084015251166040820152f35b346101555760603660031901126101555761033861159f565b6024356001600160a01b0381169190829003610155576044356001600160a01b03811690819003610155575f516020611cea5f395f51905f5254916001600160401b0360ff8460401c161593168015908161081e575b6001149081610814575b15908161080b575b506107fc576103ea908360016001600160401b03195f516020611cea5f395f51905f525416175f516020611cea5f395f51905f52556107c7575b6103e2611b30565b61017d611b30565b60409283516103f985826115d0565b601381527211dd5b99185c9a5d5348141c9a5e99541bdbdb606a1b602082015284519061042686836115d0565b60018252603160f81b602083015261043c611b30565b610444611b30565b8051906001600160401b0382116106a857819061046e5f516020611c6a5f395f51905f5254611859565b601f8111610745575b50602090601f83116001146106c7575f926106bc575b50508160011b915f199060031b1c1916175f516020611c6a5f395f51905f52555b8051906001600160401b0382116106a85781906104d85f516020611caa5f395f51905f5254611859565b601f8111610626575b50602090601f83116001146105a8575f9261059d575b50508160011b915f199060031b1c1916175f516020611caa5f395f51905f52555b6bffffffffffffffffffffffff60a01b5f5416175f556bffffffffffffffffffffffff60a01b600154161760015561054c57005b60207fc7f505b2f371ae2175ee4913f4499e1f2633a7b5936321eed1cdaeb6115181d29160ff60401b195f516020611cea5f395f51905f5254165f516020611cea5f395f51905f52555160018152a1005b0151905086806104f7565b5f516020611caa5f395f51905f525f9081528281209350601f198516905b81811061060e57509084600195949392106105f6575b505050811b015f516020611caa5f395f51905f5255610518565b01515f1960f88460031b161c191690558680806105dc565b929360206001819287860151815501950193016105c6565b828111156104e1575f516020611caa5f395f51905f525f52909150601f830160051c7f5f9ce34815f8e11431c7bb75a8e6886a91478f7ffc1dbb0a98dc240fddd76b75602085106106a0575b849392601f0160051c82900391015f5b8281106106905750506104e1565b5f81830155859450600101610682565b5f9150610672565b634e487b7160e01b5f52604160045260245ffd5b01519050878061048d565b5f516020611c6a5f395f51905f525f9081528281209350601f198516905b81811061072d5750908460019594939210610715575b505050811b015f516020611c6a5f395f51905f52556104ae565b01515f1960f88460031b161c191690558780806106fb565b929360206001819287860151815501950193016106e5565b82811115610477575f516020611c6a5f395f51905f525f52909150601f830160051c7f42ad5d3e1f2e6e70edcf6d991b8a3023d3fca8047a131592f9edb9fd9b89d57d602085106107bf575b849392601f0160051c82900391015f5b8281106107af575050610477565b5f818301558594506001016107a1565b5f9150610791565b6801000000000000000060ff60401b195f516020611cea5f395f51905f525416175f516020611cea5f395f51905f52556103da565b63f92ee8a960e01b5f5260045ffd5b905015856103a0565b303b159150610398565b84915061038e565b346101555760a03660031901126101555761083f61158f565b6024356001600160401b0381116101555761085e90369060040161165a565b6044356001600160401b0381116101555761087d90369060040161165a565b6064949194356001600160401b0381116101555761089f90369060040161165a565b94608435956001600160401b0387116101555736602388011215610155578660040135946001600160401b03861161015557366024878a0101116101555760ff16976108ee60028a111561168a565b8615610eeb5784871480610ee2575b15610e9d57885f52600260205260405f209589155f14610e815762015180985b60028801996001600160401b03808c54169116016001600160401b038111610db0576001600160401b03164210610e46579086918b8460405160208101908d6040820160208452528d60608201908b905f905b8110610e0957505093610a6c936109b76109c5610a729895856109a2604297610a7b9d9b03601f1981018352826115d0565b5190209a604051928391602083019586611747565b03601f1981018352826115d0565b519020978c6109b76109e28d604051928391602083019586611747565b519020600354996040519260208401947f196e6bbf4dd6bd63157898f91edc4655aff7a0feda8b1677e5b31ff1c7cf1974865260408501526060840152608083015260a08201528860c082015260c08152610a3e60e0826115d0565b519020610a49611a0d565b906040519161190160f01b835260028301526022820152209260243692016115f1565b90611a82565b90929192611abc565b5f516020611c8a5f395f51905f52546001600160a01b03908116911603610dc4575f198114610db0576001016003555f975f965f5b878110610d805750805490818b11610d3b5760018101918254808b11610cf657610ae692610adf8e8d94611794565b9055611794565b9055805467ffffffffffffffff1916426001600160401b03161790555f5b878110610b4557897f122ed4d667f1a7a5dd572919e19887b9da99cb0f0547c50be5c92cc92ad13afa60608b8b8b60405192835260208301526040820152a2005b610b50818784611770565b35610c50575b610b61818487611770565b35610b6f575b600101610b04565b600154610bd6906020906001600160a01b0316610b95610b90858d8a611770565b6117a1565b90610ba185888b611770565b60405163a9059cbb60e01b81526001600160a01b039093166004840152356024830152909283919082905f9082906044820190565b03925af1908115610289575f91610c32575b50610b675760405162461bcd60e51b815260206004820152601f60248201527f5072697a65506f6f6c3a2055534443207472616e73666572206661696c6564006044820152606490fd5b610c4a915060203d81116102825761027481836115d0565b8b610be8565b5f54610c7c906020906001600160a01b0316610c70610b90858d8a611770565b90610ba1858b88611770565b03925af1908115610289575f91610cd8575b50610b565760405162461bcd60e51b815260206004820152601f60248201527f5072697a65506f6f6c3a20474e444d207472616e73666572206661696c6564006044820152606490fd5b610cf0915060203d81116102825761027481836115d0565b8b610c8e565b60405162461bcd60e51b815260206004820152601c60248201527f5072697a65506f6f6c3a20696e73756666696369656e742055534443000000006044820152606490fd5b60405162461bcd60e51b815260206004820152601c60248201527f5072697a65506f6f6c3a20696e73756666696369656e7420474e444d000000006044820152606490fd5b9799610da9610d9d600192610d968c8c89611770565b359061173a565b9b610d968b888b611770565b9801610ab0565b634e487b7160e01b5f52601160045260245ffd5b60405162461bcd60e51b815260206004820152601c60248201527f5072697a65506f6f6c3a20696e76616c6964207369676e6174757265000000006044820152606490fd5b9396979850935090935082359060018060a01b038216809203610155576020816001938293520193019101928f93928c979695928f948a95610970565b60405162461bcd60e51b8152602060048201526013602482015272283934bd32a837b7b61d103a37b79039b7b7b760691b6044820152606490fd5b60018a03610e945762093a805b9861091d565b62278d00610e8e565b60405162461bcd60e51b815260206004820152601a60248201527f5072697a65506f6f6c3a206c656e677468206d69736d617463680000000000006044820152606490fd5b508187146108fd565b60405162461bcd60e51b81526020600482015260156024820152745072697a65506f6f6c3a206e6f2077696e6e65727360581b6044820152606490fd5b34610155575f36600319011261015557610f6f604051610f496040826115d0565b60058152640352e302e360dc1b6020820152604051918291602083526020830190611636565b0390f35b34610155576040366003190112610155575f6020610fdd610f9261159f565b610f9a611826565b5f516020611c8a5f395f51905f525460405163a9059cbb60e01b81526001600160a01b039091166004820152602480359082015293849283919082906044820190565b03926001600160a01b03165af1908115610289575f91611045575b501561100057005b60405162461bcd60e51b815260206004820152601a60248201527f5072697a65506f6f6c3a207769746864726177206661696c65640000000000006044820152606490fd5b61105e915060203d6020116102825761027481836115d0565b81610ff8565b34610155575f366003190112610155575f516020611c8a5f395f51905f52546040516001600160a01b039091168152602090f35b34610155575f366003190112610155576110f26110b3611891565b6110bb611960565b6020611100604051926110ce83856115d0565b5f84525f368137604051958695600f60f81b875260e08588015260e0870190611636565b908582036040870152611636565b4660608501523060808501525f60a085015283810360c08501528180845192838152019301915f5b82811061113757505050500390f35b835185528695509381019392810192600101611128565b34610155575f36600319011261015557602060405160018152f35b34610155575f3660031901126101555760206040515f8152f35b34610155575f3660031901126101555761119b611826565b5f516020611c8a5f395f51905f5280546001600160a01b031981169091555f906001600160a01b03167f8be0079c531659141344cd1fd0a4f28419497f9722a3daafe3b4186f6b6457e08280a3005b34610155575f366003190112610155576020600354604051908152f35b34610155575f366003190112610155577f00000000000000000000000000000000000000000000000000000000000000006001600160a01b0316300361125e5760206040515f516020611cca5f395f51905f528152f35b63703e46dd60e11b5f5260045ffd5b60403660031901126101555761128161159f565b6024356001600160401b0381116101555736602382011215610155576112b19036906024816004013591016115f1565b906001600160a01b037f000000000000000000000000000000000000000000000000000000000000000016308114908115611416575b5061125e576112f4611826565b6040516352d1902d60e01b81526001600160a01b0382169290602081600481875afa5f91816113e2575b506113365783634c9c8ce360e01b5f5260045260245ffd5b805f516020611cca5f395f51905f528592036113d05750823b156113be575f516020611cca5f395f51905f5280546001600160a01b031916821790557fbc7cd75a20ee27fd9adebab32041f755214dbc6bffa90cc0225b39da2e5c2d3b5f80a28051156113a65761018291611b5b565b5050346113af57005b63b398979f60e01b5f5260045ffd5b634c9c8ce360e01b5f5260045260245ffd5b632a87526960e21b5f5260045260245ffd5b9091506020813d60201161140e575b816113fe602093836115d0565b810103126101555751908561131e565b3d91506113f1565b5f516020611cca5f395f51905f52546001600160a01b031614159050836112e7565b34610155575f366003190112610155576001546040516001600160a01b039091168152602090f35b346101555760403660031901126101555761147961158f565b60ff602435911661148d600282111561168a565b5f80546040516323b872dd60e01b8152336004820152306024820152604481018590529160209183916064918391906001600160a01b03165af18015610289576114dd915f9161025a57506116ee565b805f52600260205260405f206114f483825461173a565b90555f546040519283526001600160a01b0316917fdf579713dc5e1365236e32a311de62e14a718d48397680deab3be0f9f9f0d69390602090a3005b34610155575f36600319011261015557602061154a611a0d565b604051908152f35b34610155575f36600319011261015557602060405160028152f35b34610155575f366003190112610155575f546001600160a01b03168152602090f35b6004359060ff8216820361015557565b600435906001600160a01b038216820361015557565b606081019081106001600160401b038211176106a857604052565b90601f801991011681019081106001600160401b038211176106a857604052565b9291926001600160401b0382116106a8576040519161161a601f8201601f1916602001846115d0565b829481845281830111610155578281602093845f960137010152565b805180835260209291819084018484015e5f828201840152601f01601f1916010190565b9181601f84011215610155578235916001600160401b038311610155576020808501948460051b01011161015557565b1561169157565b60405162461bcd60e51b815260206004820152601c60248201527f5072697a65506f6f6c3a20696e76616c696420706f6f6c2074797065000000006044820152606490fd5b90816020910312610155575180151581036101555790565b156116f557565b60405162461bcd60e51b815260206004820152601a60248201527f5072697a65506f6f6c3a207472616e73666572206661696c65640000000000006044820152606490fd5b91908201809211610db057565b602080825281018390526001600160fb1b0383116101555760409260051b809284830137010190565b91908110156117805760051b0190565b634e487b7160e01b5f52603260045260245ffd5b91908203918211610db057565b356001600160a01b03811681036101555790565b6001600160a01b03168015611813575f516020611c8a5f395f51905f5280546001600160a01b0319811683179091556001600160a01b03167f8be0079c531659141344cd1fd0a4f28419497f9722a3daafe3b4186f6b6457e05f80a3565b631e4fbdf760e01b5f525f60045260245ffd5b5f516020611c8a5f395f51905f52546001600160a01b0316330361184657565b63118cdaa760e01b5f523360045260245ffd5b90600182811c92168015611887575b602083101461187357565b634e487b7160e01b5f52602260045260245ffd5b91607f1691611868565b604051905f825f516020611c6a5f395f51905f5254916118b083611859565b808352926001811690811561194157506001146118d6575b6118d4925003836115d0565b565b505f516020611c6a5f395f51905f525f90815290917f42ad5d3e1f2e6e70edcf6d991b8a3023d3fca8047a131592f9edb9fd9b89d57d5b8183106119255750509060206118d4928201016118c8565b602091935080600191548385890101520191019091849261190d565b602092506118d494915060ff191682840152151560051b8201016118c8565b604051905f825f516020611caa5f395f51905f52549161197f83611859565b808352926001811690811561194157506001146119a2576118d4925003836115d0565b505f516020611caa5f395f51905f525f90815290917f5f9ce34815f8e11431c7bb75a8e6886a91478f7ffc1dbb0a98dc240fddd76b755b8183106119f15750509060206118d4928201016118c8565b60209193508060019154838589010152019101909184926119d9565b611a15611891565b60208151910120611a24611960565b602081519101206040519060208201927f8b73c3c69bb8fe3d512ecc4cf759cc79239f7b179b0ffacaa9a75d522b39400f8452604083015260608201524660808201523060a082015260a08152611a7c60c0826115d0565b51902090565b8151919060418303611ab257611aab9250602082015190606060408401519301515f1a90611be7565b9192909190565b50505f9160029190565b6004811015611b1c5780611ace575050565b60018103611ae55763f645eedf60e01b5f5260045ffd5b60028103611b00575063fce698f760e01b5f5260045260245ffd5b600314611b0a5750565b6335e2f38360e21b5f5260045260245ffd5b634e487b7160e01b5f52602160045260245ffd5b60ff5f516020611cea5f395f51905f525460401c1615611b4c57565b631afcd79f60e31b5f5260045ffd5b905f8091602081519101845af48080611bd4575b15611b8f5750506040513d81523d5f602083013e60203d82010160405290565b15611bb457639996b31560e01b5f9081526001600160a01b0391909116600452602490fd5b3d15611bc5576040513d5f823e3d90fd5b63d6bda27560e01b5f5260045ffd5b503d151580611b6f5750813b1515611b6f565b91907f7fffffffffffffffffffffffffffffff5d576e7357a4501ddfe92f46681b20a08411611c5e579160209360809260ff5f9560405194855216868401526040830152606082015282805260015afa15610289575f516001600160a01b03811615611c5457905f905f90565b505f906001905f90565b5050505f916003919056fea16a46d94261c7517cc8ff89f61c0ce93598e3c849801011dee649a6a557d1029016d09d72d40fdae2fd8ceac6b6234c7706214fd39c1cd1e609a0528c199300a16a46d94261c7517cc8ff89f61c0ce93598e3c849801011dee649a6a557d103360894a13ba1a3210667c828492db98dca3e2076cc3735a920a3ca505d382bbcf0c57e16840df040f15088dc2f81fe391c3923bec73e23a9662efc9c229c6a00a2646970667358221220c072751f9dfee149852fddd0d64e9d6cb65e922919c462c6532617831faa08c964736f6c63430008210033f0c57e16840df040f15088dc2f81fe391c3923bec73e23a9662efc9c229c6a00","linkReferences":{}},"methodIdentifiers":{"DAILY()":"7a68d1b7","DOMAIN_SEPARATOR()":"3644e515","MONTHLY()":"19fe14ce","UPGRADE_INTERFACE_VERSION()":"ad3cb1cc","WEEKLY()":"7f31f58a","depositGndm(uint8,uint256)":"3e1a7107","depositUsdc(uint8,uint256)":"df7f7b56","distribute(uint8,address[],uint256[],uint256[],bytes)":"b8992aff","distributionNonce()":"5fe62d04","eip712Domain()":"84b0196e","emergencyWithdraw(address,uint256)":"95ccea67","getPool(uint8)":"ccd79382","gndm()":"01a248d8","initialize(address,address,address)":"c0c53b8b","owner()":"8da5cb5b","pools(uint8)":"fb87a635","proxiableUUID()":"52d1902d","renounceOwnership()":"715018a6","transferOwnership(address)":"f2fde38b","upgradeToAndCall(address,bytes)":"4f1ef286","usdc()":"3e413bee"},"id":61}