{"abi":[{"type":"constructor","inputs":[{"name":"owner_","type":"address","internalType":"address"},{"name":"gndm_","type":"address","internalType":"address"},{"name":"gunr_","type":"address","internalType":"address"},{"name":"merkleRoot_","type":"bytes32","internalType":"bytes32"},{"name":"deadline_","type":"uint256","internalType":"uint256"}],"stateMutability":"nonpayable"},{"type":"function","name":"deadline","inputs":[],"outputs":[{"name":"","type":"uint256","internalType":"uint256"}],"stateMutability":"view"},{"type":"function","name":"gndm","inputs":[],"outputs":[{"name":"","type":"address","internalType":"contract IERC20"}],"stateMutability":"view"},{"type":"function","name":"gunr","inputs":[],"outputs":[{"name":"","type":"address","internalType":"contract IERC20"}],"stateMutability":"view"},{"type":"function","name":"merkleRoot","inputs":[],"outputs":[{"name":"","type":"bytes32","internalType":"bytes32"}],"stateMutability":"view"},{"type":"function","name":"migrate","inputs":[{"name":"amount","type":"uint256","internalType":"uint256"},{"name":"cap","type":"uint256","internalType":"uint256"},{"name":"proof","type":"bytes32[]","internalType":"bytes32[]"}],"outputs":[],"stateMutability":"nonpayable"},{"type":"function","name":"migrated","inputs":[{"name":"","type":"address","internalType":"address"}],"outputs":[{"name":"","type":"uint256","internalType":"uint256"}],"stateMutability":"view"},{"type":"function","name":"owner","inputs":[],"outputs":[{"name":"","type":"address","internalType":"address"}],"stateMutability":"view"},{"type":"function","name":"withdrawGNDM","inputs":[],"outputs":[],"stateMutability":"nonpayable"},{"type":"function","name":"withdrawGUNR","inputs":[],"outputs":[],"stateMutability":"nonpayable"},{"type":"event","name":"Migrated","inputs":[{"name":"user","type":"address","indexed":true,"internalType":"address"},{"name":"amount","type":"uint256","indexed":false,"internalType":"uint256"},{"name":"totalMigrated","type":"uint256","indexed":false,"internalType":"uint256"}],"anonymous":false}],"bytecode":{"object":"0x610120346101d557601f610c8c38819003918201601f19168301916001600160401b038311848410176101d95780849260a0946040528339810103126101d557610048816101ed565b90610055602082016101ed565b610061604083016101ed565b90608060608401519301519360018060a01b0381161515806101c3575b806101b1575b1561016c574285111561012757610100526001600160a01b039081166080521660a05260c05260e052604051610a8a9081610202823960805181818160d9015281816103b60152610973015260a05181818161041f015281816106500152610745015260c0518181816103510152610904015260e05181818161027e0152818161070a015261093e01526101005181818160910152818161069401526106d50152f35b60405162461bcd60e51b815260206004820152601b60248201527f4d6967726174696f6e3a20646561646c696e6520696e207061737400000000006044820152606490fd5b60405162461bcd60e51b815260206004820152601760248201527f4d6967726174696f6e3a207a65726f20616464726573730000000000000000006044820152606490fd5b506001600160a01b0383161515610084565b506001600160a01b038216151561007e565b5f80fd5b634e487b7160e01b5f52604160045260245ffd5b51906001600160a01b03821682036101d55756fe6080806040526004361015610012575f80fd5b5f3560e01c90816301a248d8146109615750806329dcb0cf146109275780632eb4a7ab146108ed5780634ba0a5ee146108b25780637de2f7f5146106c35780638da5cb5b1461067f5780639542e89f1461063b578063aec80b72146102205763e8a1e1301461007f575f80fd5b34610214575f366003190112610214577f00000000000000000000000000000000000000000000000000000000000000006100c4336001600160a01b038316146109a2565b6040516370a0823160e01b81523060048201527f00000000000000000000000000000000000000000000000000000000000000006001600160a01b031691602082602481865afa9182156101db575f926101e6575b5060405163a9059cbb60e01b81526001600160a01b0390911660048201526024810191909152906020908290815f81604481015b03925af19081156101db575f916101ac575b501561016757005b60405162461bcd60e51b815260206004820152601f60248201527f4d6967726174696f6e3a20474e444d207769746864726177206661696c6564006044820152606490fd5b6101ce915060203d6020116101d4575b6101c681836109e5565b810190610a1b565b5f61015f565b503d6101bc565b6040513d5f823e3d90fd5b91506020823d602011610218575b81610201602093836109e5565b810103126102145790519061014d610119565b5f80fd5b3d91506101f4565b346102145760603660031901126102145760443560043560243567ffffffffffffffff831161021457366023840112156102145782600401359067ffffffffffffffff8211610214578160051b9360248582010191368311610214577f000000000000000000000000000000000000000000000000000000000000000042116105f657335f525f602052806102b98660405f2054610a33565b116105b15760405160208101913360601b83526034820152603481526102e06054826109e5565b519020926102f460206040519701876109e5565b8552602401602085015b8282106105a1575050505f905b835182101561034d5760208260051b85010151908181105f1461033c575f52602052600160405f205b91019061030b565b905f52602052600160405f20610334565b90507f00000000000000000000000000000000000000000000000000000000000000000361055c57335f525f60205260405f2061038b828254610a33565b90556040516323b872dd60e01b8152336004820152306024820152604481018290526020816064815f7f00000000000000000000000000000000000000000000000000000000000000006001600160a01b03165af19081156101db575f9161053d575b50156104f85760405163a9059cbb60e01b8152336004820152602481018290526020816044815f6001600160a01b037f0000000000000000000000000000000000000000000000000000000000000000165af19081156101db575f916104d9575b501561049457335f525f60205260405f205460405191825260208201527fd083678824038160bef3975359ab29f19c3f0e9bcf9d7ead540a492d4d678b6360403392a2005b60405162461bcd60e51b815260206004820152601f60248201527f4d6967726174696f6e3a2047554e52207472616e73666572206661696c6564006044820152606490fd5b6104f2915060203d6020116101d4576101c681836109e5565b8261044f565b60405162461bcd60e51b815260206004820152601f60248201527f4d6967726174696f6e3a20474e444d207472616e73666572206661696c6564006044820152606490fd5b610556915060203d6020116101d4576101c681836109e5565b826103ee565b60405162461bcd60e51b815260206004820152601b60248201527f4d6967726174696f6e3a206e6f7420696e2077686974656c69737400000000006044820152606490fd5b81358152602091820191016102fe565b60405162461bcd60e51b815260206004820152601760248201527f4d6967726174696f6e3a206361702065786365656465640000000000000000006044820152606490fd5b60405162461bcd60e51b815260206004820152601a60248201527f4d6967726174696f6e3a20646561646c696e65207061737365640000000000006044820152606490fd5b34610214575f366003190112610214576040517f00000000000000000000000000000000000000000000000000000000000000006001600160a01b03168152602090f35b34610214575f366003190112610214576040517f00000000000000000000000000000000000000000000000000000000000000006001600160a01b03168152602090f35b34610214575f366003190112610214577f0000000000000000000000000000000000000000000000000000000000000000610708336001600160a01b038316146109a2565b7f000000000000000000000000000000000000000000000000000000000000000042111561086d576040516370a0823160e01b81523060048201527f00000000000000000000000000000000000000000000000000000000000000006001600160a01b031691602082602481865afa9182156101db575f92610837575b5060405163a9059cbb60e01b81526001600160a01b0390911660048201526024810191909152906020908290815f81604481015b03925af19081156101db575f91610818575b50156107d357005b60405162461bcd60e51b815260206004820152601f60248201527f4d6967726174696f6e3a2047554e52207769746864726177206661696c6564006044820152606490fd5b610831915060203d6020116101d4576101c681836109e5565b816107cb565b91506020823d602011610865575b81610852602093836109e5565b81010312610214579051906107b9610785565b3d9150610845565b60405162461bcd60e51b815260206004820152601e60248201527f4d6967726174696f6e3a20646561646c696e65206e6f742070617373656400006044820152606490fd5b34610214576020366003190112610214576004356001600160a01b03811690819003610214575f525f602052602060405f2054604051908152f35b34610214575f3660031901126102145760206040517f00000000000000000000000000000000000000000000000000000000000000008152f35b34610214575f3660031901126102145760206040517f00000000000000000000000000000000000000000000000000000000000000008152f35b34610214575f366003190112610214577f00000000000000000000000000000000000000000000000000000000000000006001600160a01b03168152602090f35b156109a957565b60405162461bcd60e51b815260206004820152601460248201527326b4b3b930ba34b7b71d103737ba1037bbb732b960611b6044820152606490fd5b90601f8019910116810190811067ffffffffffffffff821117610a0757604052565b634e487b7160e01b5f52604160045260245ffd5b90816020910312610214575180151581036102145790565b91908201809211610a4057565b634e487b7160e01b5f52601160045260245ffdfea26469706673582212202958821b55f6ad2753d1d3c7b61768bdf2ebc1d662f7e3530bd4fabc25dd1aae64736f6c63430008210033","linkReferences":{}},"methodIdentifiers":{"deadline()":"29dcb0cf","gndm()":"01a248d8","gunr()":"9542e89f","merkleRoot()":"2eb4a7ab","migrate(uint256,uint256,bytes32[])":"aec80b72","migrated(address)":"4ba0a5ee","owner()":"8da5cb5b","withdrawGNDM()":"e8a1e130","withdrawGUNR()":"7de2f7f5"},"id":74}