{"abi":[{"type":"constructor","inputs":[],"stateMutability":"nonpayable"},{"type":"function","name":"UPGRADE_INTERFACE_VERSION","inputs":[],"outputs":[{"name":"","type":"string","internalType":"string"}],"stateMutability":"view"},{"type":"function","name":"approve","inputs":[{"name":"to","type":"address","internalType":"address"},{"name":"tokenId","type":"uint256","internalType":"uint256"}],"outputs":[],"stateMutability":"nonpayable"},{"type":"function","name":"balanceOf","inputs":[{"name":"owner","type":"address","internalType":"address"}],"outputs":[{"name":"","type":"uint256","internalType":"uint256"}],"stateMutability":"view"},{"type":"function","name":"cosmeticPriceUsdc","inputs":[],"outputs":[{"name":"","type":"uint256","internalType":"uint256"}],"stateMutability":"view"},{"type":"function","name":"getApproved","inputs":[{"name":"tokenId","type":"uint256","internalType":"uint256"}],"outputs":[{"name":"","type":"address","internalType":"address"}],"stateMutability":"view"},{"type":"function","name":"getTraits","inputs":[{"name":"tokenId","type":"uint256","internalType":"uint256"}],"outputs":[{"name":"","type":"tuple","internalType":"struct GunplaCard.CardTraits","components":[{"name":"name","type":"string","internalType":"string"},{"name":"series","type":"string","internalType":"string"},{"name":"faction","type":"string","internalType":"string"},{"name":"pilotName","type":"string","internalType":"string"},{"name":"rarity","type":"uint8","internalType":"uint8"},{"name":"armorType","type":"uint8","internalType":"uint8"},{"name":"hp","type":"uint16","internalType":"uint16"},{"name":"primaryWeapon","type":"string","internalType":"string"},{"name":"primaryDamage","type":"uint16","internalType":"uint16"},{"name":"secondaryWeapon","type":"string","internalType":"string"},{"name":"secondaryDamage","type":"uint16","internalType":"uint16"},{"name":"tertiaryWeapon","type":"string","internalType":"string"},{"name":"tertiaryDamage","type":"uint16","internalType":"uint16"},{"name":"specialAttack","type":"string","internalType":"string"},{"name":"specialDamage","type":"uint16","internalType":"uint16"},{"name":"repaintColor","type":"string","internalType":"string"},{"name":"decalId","type":"string","internalType":"string"}]}],"stateMutability":"view"},{"type":"function","name":"initialize","inputs":[{"name":"owner_","type":"address","internalType":"address"},{"name":"usdcAddress_","type":"address","internalType":"address"},{"name":"mintPriceUsdc_","type":"uint256","internalType":"uint256"},{"name":"cosmeticPriceUsdc_","type":"uint256","internalType":"uint256"}],"outputs":[],"stateMutability":"nonpayable"},{"type":"function","name":"isApprovedForAll","inputs":[{"name":"owner","type":"address","internalType":"address"},{"name":"operator","type":"address","internalType":"address"}],"outputs":[{"name":"","type":"bool","internalType":"bool"}],"stateMutability":"view"},{"type":"function","name":"mintCard","inputs":[{"name":"to","type":"address","internalType":"address"},{"name":"tokenUri","type":"string","internalType":"string"},{"name":"traits","type":"tuple","internalType":"struct GunplaCard.CardTraits","components":[{"name":"name","type":"string","internalType":"string"},{"name":"series","type":"string","internalType":"string"},{"name":"faction","type":"string","internalType":"string"},{"name":"pilotName","type":"string","internalType":"string"},{"name":"rarity","type":"uint8","internalType":"uint8"},{"name":"armorType","type":"uint8","internalType":"uint8"},{"name":"hp","type":"uint16","internalType":"uint16"},{"name":"primaryWeapon","type":"string","internalType":"string"},{"name":"primaryDamage","type":"uint16","internalType":"uint16"},{"name":"secondaryWeapon","type":"string","internalType":"string"},{"name":"secondaryDamage","type":"uint16","internalType":"uint16"},{"name":"tertiaryWeapon","type":"string","internalType":"string"},{"name":"tertiaryDamage","type":"uint16","internalType":"uint16"},{"name":"specialAttack","type":"string","internalType":"string"},{"name":"specialDamage","type":"uint16","internalType":"uint16"},{"name":"repaintColor","type":"string","internalType":"string"},{"name":"decalId","type":"string","internalType":"string"}]}],"outputs":[{"name":"tokenId","type":"uint256","internalType":"uint256"}],"stateMutability":"nonpayable"},{"type":"function","name":"mintPriceUsdc","inputs":[],"outputs":[{"name":"","type":"uint256","internalType":"uint256"}],"stateMutability":"view"},{"type":"function","name":"name","inputs":[],"outputs":[{"name":"","type":"string","internalType":"string"}],"stateMutability":"view"},{"type":"function","name":"owner","inputs":[],"outputs":[{"name":"","type":"address","internalType":"address"}],"stateMutability":"view"},{"type":"function","name":"ownerOf","inputs":[{"name":"tokenId","type":"uint256","internalType":"uint256"}],"outputs":[{"name":"","type":"address","internalType":"address"}],"stateMutability":"view"},{"type":"function","name":"proxiableUUID","inputs":[],"outputs":[{"name":"","type":"bytes32","internalType":"bytes32"}],"stateMutability":"view"},{"type":"function","name":"renounceOwnership","inputs":[],"outputs":[],"stateMutability":"nonpayable"},{"type":"function","name":"safeTransferFrom","inputs":[{"name":"from","type":"address","internalType":"address"},{"name":"to","type":"address","internalType":"address"},{"name":"tokenId","type":"uint256","internalType":"uint256"}],"outputs":[],"stateMutability":"nonpayable"},{"type":"function","name":"safeTransferFrom","inputs":[{"name":"from","type":"address","internalType":"address"},{"name":"to","type":"address","internalType":"address"},{"name":"tokenId","type":"uint256","internalType":"uint256"},{"name":"data","type":"bytes","internalType":"bytes"}],"outputs":[],"stateMutability":"nonpayable"},{"type":"function","name":"setApprovalForAll","inputs":[{"name":"operator","type":"address","internalType":"address"},{"name":"approved","type":"bool","internalType":"bool"}],"outputs":[],"stateMutability":"nonpayable"},{"type":"function","name":"setCosmeticPrice","inputs":[{"name":"newPrice","type":"uint256","internalType":"uint256"}],"outputs":[],"stateMutability":"nonpayable"},{"type":"function","name":"setMintPrice","inputs":[{"name":"newPrice","type":"uint256","internalType":"uint256"}],"outputs":[],"stateMutability":"nonpayable"},{"type":"function","name":"supportsInterface","inputs":[{"name":"interfaceId","type":"bytes4","internalType":"bytes4"}],"outputs":[{"name":"","type":"bool","internalType":"bool"}],"stateMutability":"view"},{"type":"function","name":"symbol","inputs":[],"outputs":[{"name":"","type":"string","internalType":"string"}],"stateMutability":"view"},{"type":"function","name":"tokenByIndex","inputs":[{"name":"index","type":"uint256","internalType":"uint256"}],"outputs":[{"name":"","type":"uint256","internalType":"uint256"}],"stateMutability":"view"},{"type":"function","name":"tokenOfOwnerByIndex","inputs":[{"name":"owner","type":"address","internalType":"address"},{"name":"index","type":"uint256","internalType":"uint256"}],"outputs":[{"name":"","type":"uint256","internalType":"uint256"}],"stateMutability":"view"},{"type":"function","name":"tokenURI","inputs":[{"name":"tokenId","type":"uint256","internalType":"uint256"}],"outputs":[{"name":"","type":"string","internalType":"string"}],"stateMutability":"view"},{"type":"function","name":"totalSupply","inputs":[],"outputs":[{"name":"","type":"uint256","internalType":"uint256"}],"stateMutability":"view"},{"type":"function","name":"transferFrom","inputs":[{"name":"from","type":"address","internalType":"address"},{"name":"to","type":"address","internalType":"address"},{"name":"tokenId","type":"uint256","internalType":"uint256"}],"outputs":[],"stateMutability":"nonpayable"},{"type":"function","name":"transferOwnership","inputs":[{"name":"newOwner","type":"address","internalType":"address"}],"outputs":[],"stateMutability":"nonpayable"},{"type":"function","name":"updateCosmetics","inputs":[{"name":"tokenId","type":"uint256","internalType":"uint256"},{"name":"repaintColor","type":"string","internalType":"string"},{"name":"decalId","type":"string","internalType":"string"}],"outputs":[],"stateMutability":"nonpayable"},{"type":"function","name":"upgradeToAndCall","inputs":[{"name":"newImplementation","type":"address","internalType":"address"},{"name":"data","type":"bytes","internalType":"bytes"}],"outputs":[],"stateMutability":"payable"},{"type":"function","name":"usdc","inputs":[],"outputs":[{"name":"","type":"address","internalType":"contract IERC20"}],"stateMutability":"view"},{"type":"function","name":"withdrawUsdc","inputs":[{"name":"amount","type":"uint256","internalType":"uint256"}],"outputs":[],"stateMutability":"nonpayable"},{"type":"event","name":"Approval","inputs":[{"name":"owner","type":"address","indexed":true,"internalType":"address"},{"name":"approved","type":"address","indexed":true,"internalType":"address"},{"name":"tokenId","type":"uint256","indexed":true,"internalType":"uint256"}],"anonymous":false},{"type":"event","name":"ApprovalForAll","inputs":[{"name":"owner","type":"address","indexed":true,"internalType":"address"},{"name":"operator","type":"address","indexed":true,"internalType":"address"},{"name":"approved","type":"bool","indexed":false,"internalType":"bool"}],"anonymous":false},{"type":"event","name":"BatchMetadataUpdate","inputs":[{"name":"_fromTokenId","type":"uint256","indexed":false,"internalType":"uint256"},{"name":"_toTokenId","type":"uint256","indexed":false,"internalType":"uint256"}],"anonymous":false},{"type":"event","name":"CardMinted","inputs":[{"name":"to","type":"address","indexed":true,"internalType":"address"},{"name":"tokenId","type":"uint256","indexed":true,"internalType":"uint256"},{"name":"name","type":"string","indexed":false,"internalType":"string"},{"name":"rarity","type":"uint8","indexed":false,"internalType":"uint8"}],"anonymous":false},{"type":"event","name":"CosmeticPriceUpdated","inputs":[{"name":"newPrice","type":"uint256","indexed":false,"internalType":"uint256"}],"anonymous":false},{"type":"event","name":"CosmeticsUpdated","inputs":[{"name":"tokenId","type":"uint256","indexed":true,"internalType":"uint256"},{"name":"repaintColor","type":"string","indexed":false,"internalType":"string"},{"name":"decalId","type":"string","indexed":false,"internalType":"string"}],"anonymous":false},{"type":"event","name":"Initialized","inputs":[{"name":"version","type":"uint64","indexed":false,"internalType":"uint64"}],"anonymous":false},{"type":"event","name":"MetadataUpdate","inputs":[{"name":"_tokenId","type":"uint256","indexed":false,"internalType":"uint256"}],"anonymous":false},{"type":"event","name":"MintPriceUpdated","inputs":[{"name":"newPrice","type":"uint256","indexed":false,"internalType":"uint256"}],"anonymous":false},{"type":"event","name":"OwnershipTransferred","inputs":[{"name":"previousOwner","type":"address","indexed":true,"internalType":"address"},{"name":"newOwner","type":"address","indexed":true,"internalType":"address"}],"anonymous":false},{"type":"event","name":"Transfer","inputs":[{"name":"from","type":"address","indexed":true,"internalType":"address"},{"name":"to","type":"address","indexed":true,"internalType":"address"},{"name":"tokenId","type":"uint256","indexed":true,"internalType":"uint256"}],"anonymous":false},{"type":"event","name":"Upgraded","inputs":[{"name":"implementation","type":"address","indexed":true,"internalType":"address"}],"anonymous":false},{"type":"error","name":"AddressEmptyCode","inputs":[{"name":"target","type":"address","internalType":"address"}]},{"type":"error","name":"ERC1967InvalidImplementation","inputs":[{"name":"implementation","type":"address","internalType":"address"}]},{"type":"error","name":"ERC1967NonPayable","inputs":[]},{"type":"error","name":"ERC721EnumerableForbiddenBatchMint","inputs":[]},{"type":"error","name":"ERC721IncorrectOwner","inputs":[{"name":"sender","type":"address","internalType":"address"},{"name":"tokenId","type":"uint256","internalType":"uint256"},{"name":"owner","type":"address","internalType":"address"}]},{"type":"error","name":"ERC721InsufficientApproval","inputs":[{"name":"operator","type":"address","internalType":"address"},{"name":"tokenId","type":"uint256","internalType":"uint256"}]},{"type":"error","name":"ERC721InvalidApprover","inputs":[{"name":"approver","type":"address","internalType":"address"}]},{"type":"error","name":"ERC721InvalidOperator","inputs":[{"name":"operator","type":"address","internalType":"address"}]},{"type":"error","name":"ERC721InvalidOwner","inputs":[{"name":"owner","type":"address","internalType":"address"}]},{"type":"error","name":"ERC721InvalidReceiver","inputs":[{"name":"receiver","type":"address","internalType":"address"}]},{"type":"error","name":"ERC721InvalidSender","inputs":[{"name":"sender","type":"address","internalType":"address"}]},{"type":"error","name":"ERC721NonexistentToken","inputs":[{"name":"tokenId","type":"uint256","internalType":"uint256"}]},{"type":"error","name":"ERC721OutOfBoundsIndex","inputs":[{"name":"owner","type":"address","internalType":"address"},{"name":"index","type":"uint256","internalType":"uint256"}]},{"type":"error","name":"FailedCall","inputs":[]},{"type":"error","name":"InvalidInitialization","inputs":[]},{"type":"error","name":"NotInitializing","inputs":[]},{"type":"error","name":"OwnableInvalidOwner","inputs":[{"name":"owner","type":"address","internalType":"address"}]},{"type":"error","name":"OwnableUnauthorizedAccount","inputs":[{"name":"account","type":"address","internalType":"address"}]},{"type":"error","name":"UUPSUnauthorizedCallContext","inputs":[]},{"type":"error","name":"UUPSUnsupportedProxiableUUID","inputs":[{"name":"slot","type":"bytes32","internalType":"bytes32"}]}],"bytecode":{"object":"0x60a080604052346100c257306080525f51602061354d5f395f51905f525460ff8160401c166100b3576002600160401b03196001600160401b03821601610060575b60405161348690816100c7823960805181818161127701526113630152f35b6001600160401b0319166001600160401b039081175f51602061354d5f395f51905f525581527fc7f505b2f371ae2175ee4913f4499e1f2633a7b5936321eed1cdaeb6115181d290602090a15f80610041565b63f92ee8a960e01b5f5260045ffd5b5f80fdfe6080806040526004361015610012575f80fd5b5f3560e01c90816301ffc9a7146127385750806306fdde031461267b578063081812fc14612632578063089ea95314611748578063095ea7b31461165c5780630cb77c201461161057806318160ddd146115e757806323b872dd146115d05780632f745c59146115525780633e413bee1461152b57806342842e0e146114fc57806343dd1081146114df5780634f1ef286146113255780634f6ccce7146112cb57806352d1902d146112655780635b06dece146111895780636352211e1461115957806370a082311461112e578063715018a6146110c75780638da5cb5b1461109357806395d89b4114610fb1578063a22cb46514610f00578063ad3cb1cc14610eb9578063b88d4fde14610e5f578063c87b56dd14610e2c578063d929df0314610e0f578063e1dc076114610a8f578063e2c224571461073e578063e985e9c5146106f2578063eb990c59146101f7578063f2fde38b146101cc5763f4a0a5281461017c575f80fd5b346101c85760203660031901126101c8577f525b762709cc2a983aec5ccdfd807a061f993c91090b5bcd7da92ca254976aaa60206004356101bb613008565b80600155604051908152a1005b5f80fd5b346101c85760203660031901126101c8576101f56101e86127fb565b6101f0613008565b612f68565b005b346101c85760803660031901126101c8576102106127fb565b610218612811565b5f5160206134115f395f51905f52549060ff8260401c1615916001600160401b038116801590816106ea575b60011490816106e0575b1590816106d7575b506106c85767ffffffffffffffff1981166001175f5160206134115f395f51905f52558261069c575b50604092835161028f85826128aa565b601581527411dd5b99185c9a5d534811dd5b9c1b184810d85c99605a1b60208201528451906102be86836128aa565b600682526547554e504c4160d01b60208301526102d9613279565b6102e1613279565b8051906001600160401b038211610573576103095f5160206133715f395f51905f525461293a565b601f8111610622575b50602090601f83116001146105875761034292915f918361046d575b50508160011b915f199060031b1c19161790565b5f5160206133715f395f51905f52555b8051906001600160401b0382116105735761037a5f5160206134315f395f51905f525461293a565b601f81116104f9575b50602090601f83116001146104785791806103b7926103e795945f9261046d5750508160011b915f199060031b1c19161790565b5f5160206134315f395f51905f52555b6103cf613279565b6103d7613279565b6103df613279565b6101f0613279565b60018060a01b03166001600160601b0360a01b5f5416175f55604435600155606435600255600160035561041757005b60207fc7f505b2f371ae2175ee4913f4499e1f2633a7b5936321eed1cdaeb6115181d29168ff0000000000000000195f5160206134115f395f51905f5254165f5160206134115f395f51905f52555160018152a1005b01519050888061032e565b90601f198316915f5160206134315f395f51905f525f52815f20925f5b8181106104e157509160019391856103e7979694106104c9575b505050811b015f5160206134315f395f51905f52556103c7565b01515f1960f88460031b161c191690558780806104af565b92936020600181928786015181550195019301610495565b82811115610383575f5160206134315f395f51905f525f52601f830160051c7ff4bad0a69248f59680a4f2b3000328cec71a413447c96781cfe5996daa8c456e6020851061056b575b81601f9101920160051c03905f5b82811061055e575050610383565b5f82820155600101610550565b5f9150610542565b634e487b7160e01b5f52604160045260245ffd5b90601f198316915f5160206133715f395f51905f525f527f37c58c799b6609234b945e882912ee9ad34948a1dfaa20a97485e1a7752bbf81925f5b81811061060a57509084600195949392106105f2575b505050811b015f5160206133715f395f51905f5255610352565b01515f1960f88460031b161c191690558780806105d8565b929360206001819287860151815501950193016105c2565b82811115610312575f5160206133715f395f51905f525f52601f830160051c7f37c58c799b6609234b945e882912ee9ad34948a1dfaa20a97485e1a7752bbf8160208510610694575b81601f9101920160051c03905f5b828110610687575050610312565b5f82820155600101610679565b5f915061066b565b68ffffffffffffffffff191668010000000000000001175f5160206134115f395f51905f52558361027f565b63f92ee8a960e01b5f5260045ffd5b90501585610256565b303b15915061024e565b849150610244565b346101c85760403660031901126101c85761070b6127fb565b61071c610716612811565b91612e85565b9060018060a01b03165f52602052602060ff60405f2054166040519015158152f35b346101c85760603660031901126101c8576004356024356001600160401b0381116101c857610771903690600401612827565b91906044356001600160401b0381116101c857610792903690600401612827565b939061079d84612fd9565b336001600160a01b0390911603610a52575f80546002546040516323b872dd60e01b815233600482015230602482015260448101919091529160209183916064918391906001600160a01b03165af18015610a4757610803915f91610a18575b50612a2a565b835f526004602052600d60405f20016001600160401b038311610573576108348361082e835461293a565b83612aa7565b5f83601f81116001146109b55780610860925f916109aa575b508160011b915f199060031b1c19161790565b90555b835f526004602052600e60405f2001946001600160401b038111610573576108958161088f885461293a565b88612aa7565b5f95601f8211600114610921579061091192916108e982807fb00a8548efd29cf2372143dc9e462ec8fb8643371e1a15d2c5bf9a268635c851999a5f9161091657508160011b915f199060031b1c19161790565b90555b610903604051958695604087526040870191612b22565b918483036020860152612b22565b0390a2005b90508501358b61084d565b601f198216815f5260205f20905f5b8181106109925750907fb00a8548efd29cf2372143dc9e462ec8fb8643371e1a15d2c5bf9a268635c8519798846109119695949310610979575b5050600182811b0190556108ec565b8401355f19600385901b60f8161c19169055888061096a565b858a013583556020998a019960019093019201610930565b90508601358961084d565b50601f19841690825f528460205f20925f5b8181106109fd5750106109e4575b5050600183811b019055610863565b8501355f19600386901b60f8161c1916905586806109d5565b888401358555600190940193602093840193889350016109c7565b610a3a915060203d602011610a40575b610a3281836128aa565b810190612a12565b876107fd565b503d610a28565b6040513d5f823e3d90fd5b60405162461bcd60e51b815260206004820152601560248201527423bab7383630a1b0b9321d103737ba1037bbb732b960591b6044820152606490fd5b346101c85760203660031901126101c8576004356060610200604051610ab48161288e565b82815282602082015282604082015282808201525f60808201525f60a08201525f60c08201528260e08201525f610100820152826101208201525f610140820152826101608201525f610180820152826101a08201525f6101c0820152826101e0820152015260018060a01b03610b2a82613240565b1615610dcb575f526004602052610dc760405f20610c4f600e60405192610b508461288e565b610b5981612972565b8452610b6760018201612972565b6020850152610b7860028201612972565b6040850152610b8960038201612972565b606085015261ffff600482015460ff8116608087015260ff8160081c1660a087015260101c1660c0850152610bc060058201612972565b60e085015261ffff600682015416610100850152610be060078201612972565b61012085015261ffff600882015416610140850152610c0160098201612972565b61016085015261ffff600a82015416610180850152610c22600b8201612972565b6101a085015261ffff600c820154166101c0850152610c43600d8201612972565b6101e085015201612972565b61020082015260405191829160208352610200610db2610d8c610d64610d3c610d14610cd5610cbf610ca9610c938c6102408c5191610220602082015201906127d7565b60208b01518d8203601f190160408f01526127d7565b60408a01518c8203601f190160608e01526127d7565b60608901518b8203601f190160808d01526127d7565b60ff60808901511660a08b015260ff60a08901511660c08b015261ffff60c08901511660e08b015260e0880151601f198b8303016101008c01526127d7565b61ffff610100880151166101208a0152610120870151601f198a8303016101408b01526127d7565b61ffff61014087015116610160890152610160860151601f19898303016101808a01526127d7565b61ffff610180860151166101a08801526101a0850151601f19888303016101c08901526127d7565b61ffff6101c0850151166101e08701526101e0840151601f1987830301848801526127d7565b910151838203601f19016102208501526127d7565b0390f35b606460405162461bcd60e51b815260206004820152602060248201527f47756e706c61436172643a20746f6b656e20646f6573206e6f742065786973746044820152fd5b346101c8575f3660031901126101c8576020600154604051908152f35b346101c85760203660031901126101c857610dc7610e4b600435613171565b6040519182916020835260208301906127d7565b346101c85760803660031901126101c857610e786127fb565b610e80612811565b90604435606435926001600160401b0384116101c857610ea76101f594369060040161291c565b92610eb3838383612b42565b3361303b565b346101c8575f3660031901126101c857610dc7604051610eda6040826128aa565b60058152640352e302e360dc1b60208201526040519182916020835260208301906127d7565b346101c85760403660031901126101c857610f196127fb565b602435908115158092036101c8573315610f9e576001600160a01b0316908115610f8b57610f4633612e85565b825f5260205260405f2060ff1981541660ff83161790556040519081527f17307eab39ab6107e8899845ad3d59bd9653f200f220920489ca2b5937696c3160203392a3005b50630b61174360e31b5f5260045260245ffd5b63a9fbf51f60e01b5f525f60045260245ffd5b346101c8575f3660031901126101c8576040515f5f5160206134315f395f51905f5254610fdd8161293a565b808452906001811690811561106f5750600114611005575b610dc783610e4b818503826128aa565b5f5160206134315f395f51905f525f9081527ff4bad0a69248f59680a4f2b3000328cec71a413447c96781cfe5996daa8c456e939250905b80821061105557509091508101602001610e4b610ff5565b91926001816020925483858801015201910190929161103d565b60ff191660208086019190915291151560051b84019091019150610e4b9050610ff5565b346101c8575f3660031901126101c8575f5160206133915f395f51905f52546040516001600160a01b039091168152602090f35b346101c8575f3660031901126101c8576110df613008565b5f5160206133915f395f51905f5280546001600160a01b031981169091555f906001600160a01b03167f8be0079c531659141344cd1fd0a4f28419497f9722a3daafe3b4186f6b6457e08280a3005b346101c85760203660031901126101c857602061115161114c6127fb565b612f39565b604051908152f35b346101c85760203660031901126101c8576020611177600435612fd9565b6040516001600160a01b039091168152f35b346101c85760203660031901126101c8576111a2613008565b5f80545f5160206133915f395f51905f525460405163a9059cbb60e01b81526001600160a01b0391821660048083019190915235602482015292602092849260449284929091165af1908115610a47575f91611246575b501561120157005b60405162461bcd60e51b815260206004820152601b60248201527f47756e706c61436172643a207769746864726177206661696c656400000000006044820152606490fd5b61125f915060203d602011610a4057610a3281836128aa565b816111f9565b346101c8575f3660031901126101c8577f00000000000000000000000000000000000000000000000000000000000000006001600160a01b031630036112bc5760206040515f5160206133b15f395f51905f528152f35b63703e46dd60e11b5f5260045ffd5b346101c85760203660031901126101c8576004355f5160206133d15f395f51905f525481101561130f57611300602091612ef5565b90549060031b1c604051908152f35b63295f44f760e21b5f525f60045260245260445ffd5b60403660031901126101c8576113396127fb565b6024356001600160401b0381116101c85761135890369060040161291c565b906001600160a01b037f0000000000000000000000000000000000000000000000000000000000000000163081149081156114bd575b506112bc5761139b613008565b6040516352d1902d60e01b81526001600160a01b0382169290602081600481875afa5f9181611489575b506113dd5783634c9c8ce360e01b5f5260045260245ffd5b805f5160206133b15f395f51905f528592036114775750823b15611465575f5160206133b15f395f51905f5280546001600160a01b031916821790557fbc7cd75a20ee27fd9adebab32041f755214dbc6bffa90cc0225b39da2e5c2d3b5f80a280511561144d576101f5916132a4565b50503461145657005b63b398979f60e01b5f5260045ffd5b634c9c8ce360e01b5f5260045260245ffd5b632a87526960e21b5f5260045260245ffd5b9091506020813d6020116114b5575b816114a5602093836128aa565b810103126101c8575190856113c5565b3d9150611498565b5f5160206133b15f395f51905f52546001600160a01b0316141590508361138e565b346101c8575f3660031901126101c8576020600254604051908152f35b346101c8576101f561150d36612854565b906040519261151d6020856128aa565b5f8452610eb3838383612b42565b346101c8575f3660031901126101c8575f546040516001600160a01b039091168152602090f35b346101c85760403660031901126101c85761156b6127fb565b6024359061157881612f39565b8210156115b35760018060a01b03165f525f5160206133515f395f51905f5260205260405f20905f52602052602060405f2054604051908152f35b63295f44f760e21b5f5260018060a01b031660045260245260445ffd5b346101c8576101f56115e136612854565b91612b42565b346101c8575f3660031901126101c85760205f5160206133d15f395f51905f5254604051908152f35b346101c85760203660031901126101c8577f5d120aa58f1ab23f01d2ab1ef552d2d2814168e0fbb3714c6b329faa76bb6609602060043561164f613008565b80600255604051908152a1005b346101c85760403660031901126101c8576116756127fb565b60243561168181612fd9565b33151580611735575b80611712575b6116ff5781906001600160a01b0384811691167f8c5be1e5ebec7d5bd14f71427d1e84f3dd0314c0f7b2291e5b200ac8c7c3b9255f80a45f9081525f5160206133f15f395f51905f526020526040902080546001600160a01b0319166001600160a01b03909216919091179055005b63a9fbf51f60e01b5f523360045260245ffd5b5061171c81612e85565b335f908152602091909152604090205460ff1615611690565b506001600160a01b03811633141561168a565b346101c85760603660031901126101c8576117616127fb565b6024356001600160401b0381116101c857611780903690600401612827565b9190604435916001600160401b0383116101c8578260040161022060031985360301126101c8575f80546001546040516323b872dd60e01b815233600482015230602482015260448101919091529160209183916064918391906001600160a01b03165af18015610a47576117fb915f91610a185750612a2a565b600354925f198414612540576001840160035560209560405161181e88826128aa565b5f81526001600160a01b03851694851561261f578661183c81613240565b6001600160a01b03811680158015938a91907f80bb2b638cc20bc4d0a60d66940f3ab4a00c1d7b313497ca82fb0b4ab0079302908f90876125e2575b5061188288612ebd565b600181540190558d5f525260405f20826001600160601b0360a01b8254161790558b82847fddf252ad1be2c89b69c2b068fc378daa952ba7f163c4a11628f55a4df523b3ef5f80a41561255457505f5160206133d15f395f51905f5254908a5f527f645e039705490088daad89bae25049a34f4a9072d398537b1ab2425f24cbed038d528160405f2055600160401b821015610573576119518b6119398460018e96015f5160206133d15f395f51905f5255612ef5565b90919082549060031b91821b915f19901b1916179055565b036124ed575b506124da573b6123c0575b509061196f9136916128e6565b835f527f0542a41881ee128a365a727b282c86fa859579490b9bb45aab8503648c8e7900865260405f20908051906001600160401b038211610573576119bf826119b9855461293a565b85612aa7565b8790601f831160011461235d576119ec92915f91836123525750508160011b915f199060031b1c19161790565b90555b7ff8e1a15aba9398e019f0b49df1a4fde98ee17ae345cb5f6b5e2c27f5033e8ce785604051858152a1825f526004855260405f2093611a2e8280612a75565b906001600160401b03821161057357611a5182611a4b895461293a565b89612aa7565b5f90601f83116001146122ef57611a7e92915f91836122e45750508160011b915f199060031b1c19161790565b85555b60018501611a926024830184612a75565b906001600160401b03821161057357611aaf826119b9855461293a565b5f90601f831160011461228157611adc92915f91836121b05750508160011b915f199060031b1c19161790565b90555b60028501611af06044830184612a75565b906001600160401b03821161057357611b0d826119b9855461293a565b5f90601f831160011461221e57611b3a92915f91836121b05750508160011b915f199060031b1c19161790565b90555b60038501611b4e6064830184612a75565b906001600160401b03821161057357611b6b826119b9855461293a565b5f90601f83116001146121bb57611b9892915f91836121b05750508160011b915f199060031b1c19161790565b90555b60848101946004810160ff611baf88612b05565b1681549061ff00611bc260a48701612b05565b60081b169063ffff0000611bd860c48801612b13565b60101b169263ffffffff1916171717905560058101611bfa60e4840185612a75565b906001600160401b03821161057357611c17826119b9855461293a565b5f90601f831160011461214d57611c4492915f91836120195750508160011b915f199060031b1c19161790565b90555b611c546101048301612b13565b61ffff60068301911661ffff1982541617905560078101611c79610124840185612a75565b906001600160401b03821161057357611c96826119b9855461293a565b5f90601f83116001146120ea57611cc392915f91836120195750508160011b915f199060031b1c19161790565b90555b611cd36101448301612b13565b61ffff60088301911661ffff1982541617905560098101611cf8610164840185612a75565b906001600160401b03821161057357611d15826119b9855461293a565b5f90601f831160011461208757611d4292915f91836120195750508160011b915f199060031b1c19161790565b90555b611d526101848301612b13565b61ffff600a8301911661ffff19825416179055600b8101611d776101a4840185612a75565b906001600160401b03821161057357611d94826119b9855461293a565b5f90601f831160011461202457611dc192915f91836120195750508160011b915f199060031b1c19161790565b90555b611dd16101c48301612b13565b61ffff600c8301911661ffff19825416179055600d8101611df66101e4840185612a75565b906001600160401b03821161057357611e13826119b9855461293a565b5f90601f8311600114611fac5792611e4b83600e94611e579794610204975f92611fa15750508160011b915f199060031b1c19161790565b90555b01920183612a75565b906001600160401b03821161057357611e74826119b9855461293a565b5f90601f8311600114611f135793869793611ecd84611ede95611ed6957f9e6a9f9a44efe8783affee48da148f2f5899daf9eca355345ac09fa35071e6db995f92611f085750508160011b915f199060031b1c19161790565b90555b80612a75565b919092612b05565b60ff611ef7604051948594604086526040860191612b22565b9116888301520390a3604051908152f35b013590508d8061032e565b601f19831691845f52895f20925f5b8b828210611f8b57505084611ed6947f9e6a9f9a44efe8783affee48da148f2f5899daf9eca355345ac09fa35071e6db98948b9c9894611ede9860019510611f72575b505050811b019055611ed0565b01355f19600384901b60f8161c191690558c8080611f65565b6001849682939587013581550195019201611f22565b013590508e8061032e565b601f19831691845f528b5f20925f5b8d82821061200357505093611e579693610204969360019383600e9810611fea575b505050811b019055611e4e565b01355f19600384901b60f8161c191690558d8080611fdd565b6001849682939587013581550195019201611fbb565b013590508b8061032e565b601f19831691845f528b5f20925f5b8d828210612071575050908460019594939210612058575b505050811b019055611dc4565b01355f19600384901b60f8161c191690558a808061204b565b6001849682939587013581550195019201612033565b601f19831691845f528b5f20925f5b8d8282106120d45750509084600195949392106120bb575b505050811b019055611d45565b01355f19600384901b60f8161c191690558a80806120ae565b6001849682939587013581550195019201612096565b601f19831691845f528b5f20925f5b8d82821061213757505090846001959493921061211e575b505050811b019055611cc6565b01355f19600384901b60f8161c191690558a8080612111565b60018496829395870135815501950192016120f9565b601f19831691845f528b5f20925f5b8d82821061219a575050908460019594939210612181575b505050811b019055611c47565b01355f19600384901b60f8161c191690558a8080612174565b600184968293958701358155019501920161215c565b013590508a8061032e565b601f19831691845f528a5f20925f5b8c8282106122085750509084600195949392106121ef575b505050811b019055611b9b565b01355f19600384901b60f8161c191690558980806121e2565b60018496829395870135815501950192016121ca565b601f19831691845f528a5f20925f5b8c82821061226b575050908460019594939210612252575b505050811b019055611b3d565b01355f19600384901b60f8161c19169055898080612245565b600184968293958701358155019501920161222d565b601f19831691845f528a5f20925f5b8c8282106122ce5750509084600195949392106122b5575b505050811b019055611adf565b01355f19600384901b60f8161c191690558980806122a8565b6001849682939587013581550195019201612290565b01359050898061032e565b601f19831691885f52895f20925f5b8b82821061233c575050908460019594939210612323575b505050811b018555611a81565b01355f19600384901b60f8161c19169055888080612316565b60018496829395870135815501950192016122fe565b01519050898061032e565b90601f19831691845f52895f20925f5b8b8282106123aa575050908460019594939210612392575b505050811b0190556119ef565b01515f1960f88460031b161c19169055888080612385565b600185968293968601518155019501930161236d565b876123fe91604099989796995180938192630a85bd0160e11b83523360048401525f60248401528960448401526080606484015260848301906127d7565b03815f8c5af15f918161249a575b506124615787873d15612459573d90612424826128cb565b9161243260405193846128aa565b82523d5f8284013e5b815191826124565783633250574960e11b5f5260045260245ffd5b01fd5b60609061243b565b959694959394936001600160e01b03191663757a42ff60e11b016124875761196f611962565b83633250574960e11b5f5260045260245ffd5b9091508781813d83116124d3575b6124b281836128aa565b810103126101c857516001600160e01b0319811681036101c857908961240c565b503d6124a8565b6339e3563760e11b5f525f60045260245ffd5b6124f683612f39565b5f19810190811161254057885f525f5160206133515f395f51905f528c5260405f20815f528c528960405f2055895f525f5160206133315f395f51905f528c5260405f2055611957565b634e487b7160e01b5f52601160045260245ffd5b90808214611951578a8d5f5160206133315f395f51905f5261257586612f39565b91835f5281815260405f205493855f525f5160206133515f395f51905f52825260405f20948481036125bb575b505f52525f60408120555f528d525f6040812055611951565b845f5285835260405f2054815f528684528060405f20555f5283835260405f20555f6125a2565b5f9081525f5160206133f15f395f51905f526020526040902080546001600160a01b031916905561261286612ebd565b80545f190190558d611878565b633250574960e11b5f525f60045260245ffd5b346101c85760203660031901126101c857602061117760043561265481612fd9565b505f9081525f5160206133f15f395f51905f5260205260409020546001600160a01b031690565b346101c8575f3660031901126101c8576040515f5f5160206133715f395f51905f52546126a78161293a565b808452906001811690811561106f57506001146126ce57610dc783610e4b818503826128aa565b5f5160206133715f395f51905f525f9081527f37c58c799b6609234b945e882912ee9ad34948a1dfaa20a97485e1a7752bbf81939250905b80821061271e57509091508101602001610e4b610ff5565b919260018160209254838588010152019101909291612706565b346101c85760203660031901126101c8576004359063ffffffff60e01b82168092036101c85760209163780e9d6360e01b811490811561277a575b5015158152f35b632483248360e11b811491508115612794575b5083612773565b6380ac58cd60e01b8114915081156127c6575b81156127b5575b508361278d565b6301ffc9a760e01b149050836127ae565b635b5e139f60e01b811491506127a7565b805180835260209291819084018484015e5f828201840152601f01601f1916010190565b600435906001600160a01b03821682036101c857565b602435906001600160a01b03821682036101c857565b9181601f840112156101c8578235916001600160401b0383116101c857602083818601950101116101c857565b60609060031901126101c8576004356001600160a01b03811681036101c857906024356001600160a01b03811681036101c8579060443590565b61022081019081106001600160401b0382111761057357604052565b90601f801991011681019081106001600160401b0382111761057357604052565b6001600160401b03811161057357601f01601f191660200190565b9291926128f2826128cb565b9161290060405193846128aa565b8294818452818301116101c8578281602093845f960137010152565b9080601f830112156101c857816020612937933591016128e6565b90565b90600182811c92168015612968575b602083101461295457565b634e487b7160e01b5f52602260045260245ffd5b91607f1691612949565b9060405191825f8254926129858461293a565b80845293600181169081156129f057506001146129ac575b506129aa925003836128aa565b565b90505f9291925260205f20905f915b8183106129d45750509060206129aa928201015f61299d565b60209193508060019154838589010152019101909184926129bb565b9050602092506129aa94915060ff191682840152151560051b8201015f61299d565b908160209103126101c8575180151581036101c85790565b15612a3157565b606460405162461bcd60e51b815260206004820152602060248201527f47756e706c61436172643a2055534443207472616e73666572206661696c65646044820152fd5b903590601e19813603018212156101c857018035906001600160401b0382116101c8576020019181360383136101c857565b919091601f8311612ab8575b505050565b818311612ac457505050565b5f5260205f206020601f830160051c9210612afd575b81601f9101920160051c03905f5b82811015612ab3575f82820155600101612ae8565b5f9150612ada565b3560ff811681036101c85790565b3561ffff811681036101c85790565b908060209392818452848401375f828201840152601f01601f1916010190565b9091906001600160a01b038316801561261f57612b5e83613240565b9033151580612dd7575b506001600160a01b0382169485158015612d9b575b612b8682612ebd565b60018154019055855f527f80bb2b638cc20bc4d0a60d66940f3ab4a00c1d7b313497ca82fb0b4ab007930260205260405f20836001600160601b0360a01b8254161790558583887fddf252ad1be2c89b69c2b068fc378daa952ba7f163c4a11628f55a4df523b3ef5f80a415612cee575f5160206133d15f395f51905f5254855f527f645e039705490088daad89bae25049a34f4a9072d398537b1ab2425f24cbed036020528060405f2055600160401b8110156105735785611939826001612c5e94015f5160206133d15f395f51905f5255612ef5565b818603612c96575b5050506001600160a01b0316808303612c7e57505050565b6364283d7b60e01b5f5260045260245260445260645ffd5b612c9f90612f39565b5f19810191908211612540575f525f5160206133515f395f51905f5260205260405f20815f526020528360405f2055835f525f5160206133315f395f51905f5260205260405f20555f80612c66565b858214612c5e57612cfe83612f39565b855f525f5160206133315f395f51905f5260205260405f205490875f525f5160206133515f395f51905f5260205260405f2091818103612d64575b50865f525f5160206133315f395f51905f526020525f60408120555f526020525f6040812055612c5e565b815f528260205260405f2054815f52836020528060405f20555f525f5160206133315f395f51905f5260205260405f20555f612d39565b5f8681525f5160206133f15f395f51905f526020526040902080546001600160a01b0319169055612dcb84612ebd565b80545f19019055612b7d565b80612e1f575b15612de8575f612b68565b836001600160a01b038316612e0957637e27328960e01b5f5260045260245ffd5b63177e802f60e01b5f523360045260245260445ffd5b506001600160a01b03821633148015612e63575b80612ddd57505f8481525f5160206133f15f395f51905f5260205260409020546001600160a01b03163314612ddd565b50612e6d82612e85565b335f908152602091909152604090205460ff16612e33565b6001600160a01b03165f9081527f80bb2b638cc20bc4d0a60d66940f3ab4a00c1d7b313497ca82fb0b4ab00793056020526040902090565b6001600160a01b03165f9081527f80bb2b638cc20bc4d0a60d66940f3ab4a00c1d7b313497ca82fb0b4ab00793036020526040902090565b5f5160206133d15f395f51905f5254811015612f25575f5160206133d15f395f51905f525f5260205f2001905f90565b634e487b7160e01b5f52603260045260245ffd5b6001600160a01b03811615612f5557612f5190612ebd565b5490565b6322718ad960e21b5f525f60045260245ffd5b6001600160a01b03168015612fc6575f5160206133915f395f51905f5280546001600160a01b0319811683179091556001600160a01b03167f8be0079c531659141344cd1fd0a4f28419497f9722a3daafe3b4186f6b6457e05f80a3565b631e4fbdf760e01b5f525f60045260245ffd5b612fe281613240565b906001600160a01b03821615612ff6575090565b637e27328960e01b5f5260045260245ffd5b5f5160206133915f395f51905f52546001600160a01b0316330361302857565b63118cdaa760e01b5f523360045260245ffd5b823b613049575b5050505050565b604051630a85bd0160e11b81526001600160a01b0391821660048201529181166024830152604482019390935260806064820152911691602090829081906130959060848301906127d7565b03815f865af15f918161312c575b506130f857503d156130f1573d6130b9816128cb565b906130c760405192836128aa565b81523d5f602083013e5b805190816130ec5782633250574960e11b5f5260045260245ffd5b602001fd5b60606130d1565b6001600160e01b03191663757a42ff60e11b0161311a57505f80808080613042565b633250574960e11b5f5260045260245ffd5b9091506020813d602011613169575b81613148602093836128aa565b810103126101c857516001600160e01b0319811681036101c857905f6130a3565b3d915061313b565b61317a81612fd9565b5060209060405161318b83826128aa565b5f8152815f527f0542a41881ee128a365a727b282c86fa859579490b9bb45aab8503648c8e790083526131c060405f20612972565b81511561323957808491516131fe575050506131db90612fd9565b505f6040516131ea83826128aa565b526131f860405191826128aa565b5f815290565b612937935081906040519584879551918291018487015e8401908282015f8152815193849201905e01015f815203601f1981018352826128aa565b9250505090565b5f9081527f80bb2b638cc20bc4d0a60d66940f3ab4a00c1d7b313497ca82fb0b4ab007930260205260409020546001600160a01b031690565b60ff5f5160206134115f395f51905f525460401c161561329557565b631afcd79f60e31b5f5260045ffd5b905f8091602081519101845af4808061331d575b156132d85750506040513d81523d5f602083013e60203d82010160405290565b156132fd57639996b31560e01b5f9081526001600160a01b0391909116600452602490fd5b3d1561330e576040513d5f823e3d90fd5b63d6bda27560e01b5f5260045ffd5b503d1515806132b85750813b15156132b856fe645e039705490088daad89bae25049a34f4a9072d398537b1ab2425f24cbed01645e039705490088daad89bae25049a34f4a9072d398537b1ab2425f24cbed0080bb2b638cc20bc4d0a60d66940f3ab4a00c1d7b313497ca82fb0b4ab00793009016d09d72d40fdae2fd8ceac6b6234c7706214fd39c1cd1e609a0528c199300360894a13ba1a3210667c828492db98dca3e2076cc3735a920a3ca505d382bbc645e039705490088daad89bae25049a34f4a9072d398537b1ab2425f24cbed0280bb2b638cc20bc4d0a60d66940f3ab4a00c1d7b313497ca82fb0b4ab0079304f0c57e16840df040f15088dc2f81fe391c3923bec73e23a9662efc9c229c6a0080bb2b638cc20bc4d0a60d66940f3ab4a00c1d7b313497ca82fb0b4ab0079301a26469706673582212203df4149175468608b5d7fd0f6c9542d4fcea0d7044e7d9b7ffeee9be5ca3b00864736f6c63430008210033f0c57e16840df040f15088dc2f81fe391c3923bec73e23a9662efc9c229c6a00","linkReferences":{}},"methodIdentifiers":{"UPGRADE_INTERFACE_VERSION()":"ad3cb1cc","approve(address,uint256)":"095ea7b3","balanceOf(address)":"70a08231","cosmeticPriceUsdc()":"43dd1081","getApproved(uint256)":"081812fc","getTraits(uint256)":"e1dc0761","initialize(address,address,uint256,uint256)":"eb990c59","isApprovedForAll(address,address)":"e985e9c5","mintCard(address,string,(string,string,string,string,uint8,uint8,uint16,string,uint16,string,uint16,string,uint16,string,uint16,string,string))":"089ea953","mintPriceUsdc()":"d929df03","name()":"06fdde03","owner()":"8da5cb5b","ownerOf(uint256)":"6352211e","proxiableUUID()":"52d1902d","renounceOwnership()":"715018a6","safeTransferFrom(address,address,uint256)":"42842e0e","safeTransferFrom(address,address,uint256,bytes)":"b88d4fde","setApprovalForAll(address,bool)":"a22cb465","setCosmeticPrice(uint256)":"0cb77c20","setMintPrice(uint256)":"f4a0a528","supportsInterface(bytes4)":"01ffc9a7","symbol()":"95d89b41","tokenByIndex(uint256)":"4f6ccce7","tokenOfOwnerByIndex(address,uint256)":"2f745c59","tokenURI(uint256)":"c87b56dd","totalSupply()":"18160ddd","transferFrom(address,address,uint256)":"23b872dd","transferOwnership(address)":"f2fde38b","updateCosmetics(uint256,string,string)":"e2c22457","upgradeToAndCall(address,bytes)":"4f1ef286","usdc()":"3e413bee","withdrawUsdc(uint256)":"5b06dece"},"id":70}