{"abi":[{"type":"constructor","inputs":[],"stateMutability":"nonpayable"},{"type":"function","name":"UPGRADE_INTERFACE_VERSION","inputs":[],"outputs":[{"name":"","type":"string","internalType":"string"}],"stateMutability":"view"},{"type":"function","name":"approve","inputs":[{"name":"to","type":"address","internalType":"address"},{"name":"tokenId","type":"uint256","internalType":"uint256"}],"outputs":[],"stateMutability":"nonpayable"},{"type":"function","name":"balanceOf","inputs":[{"name":"owner","type":"address","internalType":"address"}],"outputs":[{"name":"","type":"uint256","internalType":"uint256"}],"stateMutability":"view"},{"type":"function","name":"cosmeticPriceUsdc","inputs":[],"outputs":[{"name":"","type":"uint256","internalType":"uint256"}],"stateMutability":"view"},{"type":"function","name":"getApproved","inputs":[{"name":"tokenId","type":"uint256","internalType":"uint256"}],"outputs":[{"name":"","type":"address","internalType":"address"}],"stateMutability":"view"},{"type":"function","name":"getTraits","inputs":[{"name":"tokenId","type":"uint256","internalType":"uint256"}],"outputs":[{"name":"","type":"tuple","internalType":"struct GunplaCard.CardTraits","components":[{"name":"name","type":"string","internalType":"string"},{"name":"series","type":"string","internalType":"string"},{"name":"faction","type":"string","internalType":"string"},{"name":"pilotName","type":"string","internalType":"string"},{"name":"rarity","type":"uint8","internalType":"uint8"},{"name":"armorType","type":"uint8","internalType":"uint8"},{"name":"hp","type":"uint16","internalType":"uint16"},{"name":"primaryWeapon","type":"string","internalType":"string"},{"name":"primaryDamage","type":"uint16","internalType":"uint16"},{"name":"secondaryWeapon","type":"string","internalType":"string"},{"name":"secondaryDamage","type":"uint16","internalType":"uint16"},{"name":"tertiaryWeapon","type":"string","internalType":"string"},{"name":"tertiaryDamage","type":"uint16","internalType":"uint16"},{"name":"specialAttack","type":"string","internalType":"string"},{"name":"specialDamage","type":"uint16","internalType":"uint16"},{"name":"repaintColor","type":"string","internalType":"string"},{"name":"decalId","type":"string","internalType":"string"}]}],"stateMutability":"view"},{"type":"function","name":"initialize","inputs":[{"name":"owner_","type":"address","internalType":"address"},{"name":"usdcAddress_","type":"address","internalType":"address"},{"name":"mintPriceUsdc_","type":"uint256","internalType":"uint256"},{"name":"cosmeticPriceUsdc_","type":"uint256","internalType":"uint256"}],"outputs":[],"stateMutability":"nonpayable"},{"type":"function","name":"isApprovedForAll","inputs":[{"name":"owner","type":"address","internalType":"address"},{"name":"operator","type":"address","internalType":"address"}],"outputs":[{"name":"","type":"bool","internalType":"bool"}],"stateMutability":"view"},{"type":"function","name":"merkleRoot","inputs":[],"outputs":[{"name":"","type":"bytes32","internalType":"bytes32"}],"stateMutability":"view"},{"type":"function","name":"mintCard","inputs":[{"name":"to","type":"address","internalType":"address"},{"name":"tokenUri","type":"string","internalType":"string"},{"name":"traits","type":"tuple","internalType":"struct GunplaCard.CardTraits","components":[{"name":"name","type":"string","internalType":"string"},{"name":"series","type":"string","internalType":"string"},{"name":"faction","type":"string","internalType":"string"},{"name":"pilotName","type":"string","internalType":"string"},{"name":"rarity","type":"uint8","internalType":"uint8"},{"name":"armorType","type":"uint8","internalType":"uint8"},{"name":"hp","type":"uint16","internalType":"uint16"},{"name":"primaryWeapon","type":"string","internalType":"string"},{"name":"primaryDamage","type":"uint16","internalType":"uint16"},{"name":"secondaryWeapon","type":"string","internalType":"string"},{"name":"secondaryDamage","type":"uint16","internalType":"uint16"},{"name":"tertiaryWeapon","type":"string","internalType":"string"},{"name":"tertiaryDamage","type":"uint16","internalType":"uint16"},{"name":"specialAttack","type":"string","internalType":"string"},{"name":"specialDamage","type":"uint16","internalType":"uint16"},{"name":"repaintColor","type":"string","internalType":"string"},{"name":"decalId","type":"string","internalType":"string"}]}],"outputs":[{"name":"tokenId","type":"uint256","internalType":"uint256"}],"stateMutability":"nonpayable"},{"type":"function","name":"mintCardWhitelist","inputs":[{"name":"to","type":"address","internalType":"address"},{"name":"tokenUri","type":"string","internalType":"string"},{"name":"traits","type":"tuple","internalType":"struct GunplaCard.CardTraits","components":[{"name":"name","type":"string","internalType":"string"},{"name":"series","type":"string","internalType":"string"},{"name":"faction","type":"string","internalType":"string"},{"name":"pilotName","type":"string","internalType":"string"},{"name":"rarity","type":"uint8","internalType":"uint8"},{"name":"armorType","type":"uint8","internalType":"uint8"},{"name":"hp","type":"uint16","internalType":"uint16"},{"name":"primaryWeapon","type":"string","internalType":"string"},{"name":"primaryDamage","type":"uint16","internalType":"uint16"},{"name":"secondaryWeapon","type":"string","internalType":"string"},{"name":"secondaryDamage","type":"uint16","internalType":"uint16"},{"name":"tertiaryWeapon","type":"string","internalType":"string"},{"name":"tertiaryDamage","type":"uint16","internalType":"uint16"},{"name":"specialAttack","type":"string","internalType":"string"},{"name":"specialDamage","type":"uint16","internalType":"uint16"},{"name":"repaintColor","type":"string","internalType":"string"},{"name":"decalId","type":"string","internalType":"string"}]},{"name":"tier","type":"uint8","internalType":"uint8"},{"name":"proof","type":"bytes32[]","internalType":"bytes32[]"}],"outputs":[{"name":"tokenId","type":"uint256","internalType":"uint256"}],"stateMutability":"nonpayable"},{"type":"function","name":"mintPhase","inputs":[],"outputs":[{"name":"","type":"uint8","internalType":"enum GunplaCard.MintPhase"}],"stateMutability":"view"},{"type":"function","name":"mintPriceUsdc","inputs":[],"outputs":[{"name":"","type":"uint256","internalType":"uint256"}],"stateMutability":"view"},{"type":"function","name":"name","inputs":[],"outputs":[{"name":"","type":"string","internalType":"string"}],"stateMutability":"view"},{"type":"function","name":"owner","inputs":[],"outputs":[{"name":"","type":"address","internalType":"address"}],"stateMutability":"view"},{"type":"function","name":"ownerOf","inputs":[{"name":"tokenId","type":"uint256","internalType":"uint256"}],"outputs":[{"name":"","type":"address","internalType":"address"}],"stateMutability":"view"},{"type":"function","name":"proxiableUUID","inputs":[],"outputs":[{"name":"","type":"bytes32","internalType":"bytes32"}],"stateMutability":"view"},{"type":"function","name":"renounceOwnership","inputs":[],"outputs":[],"stateMutability":"nonpayable"},{"type":"function","name":"safeTransferFrom","inputs":[{"name":"from","type":"address","internalType":"address"},{"name":"to","type":"address","internalType":"address"},{"name":"tokenId","type":"uint256","internalType":"uint256"}],"outputs":[],"stateMutability":"nonpayable"},{"type":"function","name":"safeTransferFrom","inputs":[{"name":"from","type":"address","internalType":"address"},{"name":"to","type":"address","internalType":"address"},{"name":"tokenId","type":"uint256","internalType":"uint256"},{"name":"data","type":"bytes","internalType":"bytes"}],"outputs":[],"stateMutability":"nonpayable"},{"type":"function","name":"setApprovalForAll","inputs":[{"name":"operator","type":"address","internalType":"address"},{"name":"approved","type":"bool","internalType":"bool"}],"outputs":[],"stateMutability":"nonpayable"},{"type":"function","name":"setCosmeticPrice","inputs":[{"name":"newPrice","type":"uint256","internalType":"uint256"}],"outputs":[],"stateMutability":"nonpayable"},{"type":"function","name":"setMerkleRoot","inputs":[{"name":"root_","type":"bytes32","internalType":"bytes32"}],"outputs":[],"stateMutability":"nonpayable"},{"type":"function","name":"setMintPhase","inputs":[{"name":"phase_","type":"uint8","internalType":"enum GunplaCard.MintPhase"}],"outputs":[],"stateMutability":"nonpayable"},{"type":"function","name":"setMintPrice","inputs":[{"name":"newPrice","type":"uint256","internalType":"uint256"}],"outputs":[],"stateMutability":"nonpayable"},{"type":"function","name":"setTierPrice","inputs":[{"name":"tier_","type":"uint8","internalType":"uint8"},{"name":"price_","type":"uint256","internalType":"uint256"}],"outputs":[],"stateMutability":"nonpayable"},{"type":"function","name":"setWhitelistMintCap","inputs":[{"name":"cap_","type":"uint256","internalType":"uint256"}],"outputs":[],"stateMutability":"nonpayable"},{"type":"function","name":"supportsInterface","inputs":[{"name":"interfaceId","type":"bytes4","internalType":"bytes4"}],"outputs":[{"name":"","type":"bool","internalType":"bool"}],"stateMutability":"view"},{"type":"function","name":"symbol","inputs":[],"outputs":[{"name":"","type":"string","internalType":"string"}],"stateMutability":"view"},{"type":"function","name":"tierPrice","inputs":[{"name":"","type":"uint8","internalType":"uint8"}],"outputs":[{"name":"","type":"uint256","internalType":"uint256"}],"stateMutability":"view"},{"type":"function","name":"tokenByIndex","inputs":[{"name":"index","type":"uint256","internalType":"uint256"}],"outputs":[{"name":"","type":"uint256","internalType":"uint256"}],"stateMutability":"view"},{"type":"function","name":"tokenOfOwnerByIndex","inputs":[{"name":"owner","type":"address","internalType":"address"},{"name":"index","type":"uint256","internalType":"uint256"}],"outputs":[{"name":"","type":"uint256","internalType":"uint256"}],"stateMutability":"view"},{"type":"function","name":"tokenURI","inputs":[{"name":"tokenId","type":"uint256","internalType":"uint256"}],"outputs":[{"name":"","type":"string","internalType":"string"}],"stateMutability":"view"},{"type":"function","name":"totalSupply","inputs":[],"outputs":[{"name":"","type":"uint256","internalType":"uint256"}],"stateMutability":"view"},{"type":"function","name":"transferFrom","inputs":[{"name":"from","type":"address","internalType":"address"},{"name":"to","type":"address","internalType":"address"},{"name":"tokenId","type":"uint256","internalType":"uint256"}],"outputs":[],"stateMutability":"nonpayable"},{"type":"function","name":"transferOwnership","inputs":[{"name":"newOwner","type":"address","internalType":"address"}],"outputs":[],"stateMutability":"nonpayable"},{"type":"function","name":"updateCosmetics","inputs":[{"name":"tokenId","type":"uint256","internalType":"uint256"},{"name":"repaintColor","type":"string","internalType":"string"},{"name":"decalId","type":"string","internalType":"string"}],"outputs":[],"stateMutability":"nonpayable"},{"type":"function","name":"upgradeToAndCall","inputs":[{"name":"newImplementation","type":"address","internalType":"address"},{"name":"data","type":"bytes","internalType":"bytes"}],"outputs":[],"stateMutability":"payable"},{"type":"function","name":"usdc","inputs":[],"outputs":[{"name":"","type":"address","internalType":"contract IERC20"}],"stateMutability":"view"},{"type":"function","name":"whitelistMintCap","inputs":[],"outputs":[{"name":"","type":"uint256","internalType":"uint256"}],"stateMutability":"view"},{"type":"function","name":"whitelistMintCount","inputs":[{"name":"","type":"address","internalType":"address"}],"outputs":[{"name":"","type":"uint256","internalType":"uint256"}],"stateMutability":"view"},{"type":"function","name":"withdrawUsdc","inputs":[{"name":"amount","type":"uint256","internalType":"uint256"}],"outputs":[],"stateMutability":"nonpayable"},{"type":"event","name":"Approval","inputs":[{"name":"owner","type":"address","indexed":true,"internalType":"address"},{"name":"approved","type":"address","indexed":true,"internalType":"address"},{"name":"tokenId","type":"uint256","indexed":true,"internalType":"uint256"}],"anonymous":false},{"type":"event","name":"ApprovalForAll","inputs":[{"name":"owner","type":"address","indexed":true,"internalType":"address"},{"name":"operator","type":"address","indexed":true,"internalType":"address"},{"name":"approved","type":"bool","indexed":false,"internalType":"bool"}],"anonymous":false},{"type":"event","name":"BatchMetadataUpdate","inputs":[{"name":"_fromTokenId","type":"uint256","indexed":false,"internalType":"uint256"},{"name":"_toTokenId","type":"uint256","indexed":false,"internalType":"uint256"}],"anonymous":false},{"type":"event","name":"CardMinted","inputs":[{"name":"to","type":"address","indexed":true,"internalType":"address"},{"name":"tokenId","type":"uint256","indexed":true,"internalType":"uint256"},{"name":"name","type":"string","indexed":false,"internalType":"string"},{"name":"rarity","type":"uint8","indexed":false,"internalType":"uint8"}],"anonymous":false},{"type":"event","name":"CosmeticPriceUpdated","inputs":[{"name":"newPrice","type":"uint256","indexed":false,"internalType":"uint256"}],"anonymous":false},{"type":"event","name":"CosmeticsUpdated","inputs":[{"name":"tokenId","type":"uint256","indexed":true,"internalType":"uint256"},{"name":"repaintColor","type":"string","indexed":false,"internalType":"string"},{"name":"decalId","type":"string","indexed":false,"internalType":"string"}],"anonymous":false},{"type":"event","name":"Initialized","inputs":[{"name":"version","type":"uint64","indexed":false,"internalType":"uint64"}],"anonymous":false},{"type":"event","name":"MetadataUpdate","inputs":[{"name":"_tokenId","type":"uint256","indexed":false,"internalType":"uint256"}],"anonymous":false},{"type":"event","name":"MintPriceUpdated","inputs":[{"name":"newPrice","type":"uint256","indexed":false,"internalType":"uint256"}],"anonymous":false},{"type":"event","name":"OwnershipTransferred","inputs":[{"name":"previousOwner","type":"address","indexed":true,"internalType":"address"},{"name":"newOwner","type":"address","indexed":true,"internalType":"address"}],"anonymous":false},{"type":"event","name":"Transfer","inputs":[{"name":"from","type":"address","indexed":true,"internalType":"address"},{"name":"to","type":"address","indexed":true,"internalType":"address"},{"name":"tokenId","type":"uint256","indexed":true,"internalType":"uint256"}],"anonymous":false},{"type":"event","name":"Upgraded","inputs":[{"name":"implementation","type":"address","indexed":true,"internalType":"address"}],"anonymous":false},{"type":"error","name":"AddressEmptyCode","inputs":[{"name":"target","type":"address","internalType":"address"}]},{"type":"error","name":"ERC1967InvalidImplementation","inputs":[{"name":"implementation","type":"address","internalType":"address"}]},{"type":"error","name":"ERC1967NonPayable","inputs":[]},{"type":"error","name":"ERC721EnumerableForbiddenBatchMint","inputs":[]},{"type":"error","name":"ERC721IncorrectOwner","inputs":[{"name":"sender","type":"address","internalType":"address"},{"name":"tokenId","type":"uint256","internalType":"uint256"},{"name":"owner","type":"address","internalType":"address"}]},{"type":"error","name":"ERC721InsufficientApproval","inputs":[{"name":"operator","type":"address","internalType":"address"},{"name":"tokenId","type":"uint256","internalType":"uint256"}]},{"type":"error","name":"ERC721InvalidApprover","inputs":[{"name":"approver","type":"address","internalType":"address"}]},{"type":"error","name":"ERC721InvalidOperator","inputs":[{"name":"operator","type":"address","internalType":"address"}]},{"type":"error","name":"ERC721InvalidOwner","inputs":[{"name":"owner","type":"address","internalType":"address"}]},{"type":"error","name":"ERC721InvalidReceiver","inputs":[{"name":"receiver","type":"address","internalType":"address"}]},{"type":"error","name":"ERC721InvalidSender","inputs":[{"name":"sender","type":"address","internalType":"address"}]},{"type":"error","name":"ERC721NonexistentToken","inputs":[{"name":"tokenId","type":"uint256","internalType":"uint256"}]},{"type":"error","name":"ERC721OutOfBoundsIndex","inputs":[{"name":"owner","type":"address","internalType":"address"},{"name":"index","type":"uint256","internalType":"uint256"}]},{"type":"error","name":"FailedCall","inputs":[]},{"type":"error","name":"InvalidInitialization","inputs":[]},{"type":"error","name":"NotInitializing","inputs":[]},{"type":"error","name":"OwnableInvalidOwner","inputs":[{"name":"owner","type":"address","internalType":"address"}]},{"type":"error","name":"OwnableUnauthorizedAccount","inputs":[{"name":"account","type":"address","internalType":"address"}]},{"type":"error","name":"UUPSUnauthorizedCallContext","inputs":[]},{"type":"error","name":"UUPSUnsupportedProxiableUUID","inputs":[{"name":"slot","type":"bytes32","internalType":"bytes32"}]}],"bytecode":{"object":"0x60a080604052346100c257306080525f51602061442c5f395f51905f525460ff8160401c166100b3576002600160401b03196001600160401b03821601610060575b60405161436590816100c7823960805181818161204d01526121390152f35b6001600160401b0319166001600160401b039081175f51602061442c5f395f51905f525581527fc7f505b2f371ae2175ee4913f4499e1f2633a7b5936321eed1cdaeb6115181d290602090a15f80610041565b63f92ee8a960e01b5f5260045ffd5b5f80fdfe6080806040526004361015610012575f80fd5b5f3560e01c90816301ffc9a7146130a45750806306fdde0314612fe7578063081812fc14612f9e578063089ea9531461260a578063095ea7b31461251e5780630cb77c20146124d257806317881cbf146124a957806318160ddd1461248057806323b872dd146124695780632eb4a7ab1461244c5780632f745c59146123ce57806331c07bbf146123975780633bdf4ac61461235f5780633e413bee1461233857806342842e0e1461230957806343dd1081146122ec5780634a5c6f8c146122b55780634f1ef286146120fb5780634f6ccce7146120a157806352d1902d1461203b5780635b06dece14611f5f5780636352211e14611f2f57806370a0823114611f04578063715018a614611e9d5780637cb6475914611e7c5780638b54252614611e4a5780638da5cb5b14611e1657806395d89b4114611d34578063a22cb46514611c83578063ac80293514611c62578063ad3cb1cc14611c1b578063b88d4fde14611bc1578063c87b56dd14611b8e578063d929df0314611b71578063e1dc0761146117f1578063e2c22457146114bc578063e7ad02571461149f578063e985e9c514611453578063eb990c5914610f6d578063f007e2ab14610265578063f2fde38b1461023a5763f4a0a528146101ea575f80fd5b34610236576020366003190112610236577f525b762709cc2a983aec5ccdfd807a061f993c91090b5bcd7da92ca254976aaa6020600435610229613ed9565b80600155604051908152a1005b5f80fd5b3461023657602036600319011261023657610263610256613167565b61025e613ed9565b613953565b005b346102365760a03660031901126102365761027e613167565b6024356001600160401b0381116102365761029d903690600401613193565b91906044356001600160401b0381116102365780600401926102206003198336030112610236576064359460ff86169485870361023657608435956001600160401b0387116102365736602388011215610236578660040135966001600160401b038811610236578760051b9860248a830101903682116102365760ff600554166003811015610f5957600103610f09576009548015908115610ef3575b5015610eae57835f52600860205260405f205415610e695760405160208101913360601b835260ff60f81b9060f81b1660348201526015815261037f603582613296565b519020916006549961039760206040519d018d613296565b8b5260240160208b015b828210610e5957505050955f965b89518810156103f15760208860051b8b010151908181105f146103e0575f52602052600160405f205b9701966103af565b905f52602052600160405f206103d8565b8803610e14575f80549281526008602090815260408083205490516323b872dd60e01b81523360048201523060248201526044810191909152939091849160649183916001600160a01b03165af1908115610e095761045e6104979261049d945f91610dda575b50613416565b335f52600760205260405f206104748154613461565b90556003549461048386613461565b60035561049086886139f3565b36916132d2565b83613d94565b815f52600460205260405f20906104b48180613483565b906001600160401b038211610a0c576104d7826104d18654613326565b866134b5565b5f90601f8311600114610d765761050592915f9183610d6b575b50508160011b915f199060031b1c19161790565b82555b600182016105196024870183613483565b906001600160401b038211610a0c5761053c826105368554613326565b856134b5565b5f90601f8311600114610d075761056992915f9183610c345750508160011b915f199060031b1c19161790565b90555b6002820161057d6044870183613483565b906001600160401b038211610a0c5761059a826105368554613326565b5f90601f8311600114610ca3576105c792915f9183610c345750508160011b915f199060031b1c19161790565b90555b600382016105db6064870183613483565b906001600160401b038211610a0c576105f8826105368554613326565b5f90601f8311600114610c3f5761062592915f9183610c345750508160011b915f199060031b1c19161790565b90555b60848501916004810160ff61063c85613513565b1681549061ff0061064f60a48b01613513565b60081b169063ffff000061066560c48c01613521565b60101b169263ffffffff191617171790556005810161068760e4880184613483565b906001600160401b038211610a0c576106a4826105368554613326565b5f90601f8311600114610bd0576106d192915f9183610a995750508160011b915f199060031b1c19161790565b90555b6106e16101048701613521565b61ffff60068301911661ffff1982541617905560078101610706610124880184613483565b906001600160401b038211610a0c57610723826105368554613326565b5f90601f8311600114610b6c5761075092915f9183610a995750508160011b915f199060031b1c19161790565b90555b6107606101448701613521565b61ffff60088301911661ffff1982541617905560098101610785610164880184613483565b906001600160401b038211610a0c576107a2826105368554613326565b5f90601f8311600114610b08576107cf92915f9183610a995750508160011b915f199060031b1c19161790565b90555b6107df6101848701613521565b61ffff600a8301911661ffff19825416179055600b81016108046101a4880184613483565b906001600160401b038211610a0c57610821826105368554613326565b5f90601f8311600114610aa45761084e92915f9183610a995750508160011b915f199060031b1c19161790565b90555b61085e6101c48701613521565b61ffff600c8301911661ffff19825416179055600d81016108836101e4880184613483565b906001600160401b038211610a0c576108a0826105368554613326565b5f90601f8311600114610a2b57926108d883600e946108e49794610204975f92610a205750508160011b915f199060031b1c19161790565b90555b01960182613483565b6001600160401b038197929711610a0c57602096610906826105368554613326565b5f90601f831160011461098f575f5160206141f05f395f51905f52946109609461094f858a9b9661097996610958965f926109845750508160011b915f199060031b1c19161790565b90555b80613483565b939095613513565b6040516001600160a01b03909316959293849384613550565b0390a3604051908152f35b013590508e806104f1565b601f19831691845f52895f20925f5b8181106109f557509460018561097995610958955f5160206141f05f395f51905f529a958d9e996109609b106109dc575b505050811b019055610952565b01355f19600384901b60f8161c191690558d80806109cf565b91938b60018192878701358155019501920161099e565b634e487b7160e01b5f52604160045260245ffd5b013590508d806104f1565b601f19831691845f5260205f20925f5b818110610a815750936108e49693610204969360019383600e9810610a68575b505050811b0190556108db565b01355f19600384901b60f8161c191690558c8080610a5b565b91936020600181928787013581550195019201610a3b565b013590508a806104f1565b601f19831691845f5260205f20925f5b818110610af05750908460019594939210610ad7575b505050811b019055610851565b01355f19600384901b60f8161c19169055898080610aca565b91936020600181928787013581550195019201610ab4565b601f19831691845f5260205f20925f5b818110610b545750908460019594939210610b3b575b505050811b0190556107d2565b01355f19600384901b60f8161c19169055898080610b2e565b91936020600181928787013581550195019201610b18565b601f19831691845f5260205f20925f5b818110610bb85750908460019594939210610b9f575b505050811b019055610753565b01355f19600384901b60f8161c19169055898080610b92565b91936020600181928787013581550195019201610b7c565b601f19831691845f5260205f20925f5b818110610c1c5750908460019594939210610c03575b505050811b0190556106d4565b01355f19600384901b60f8161c19169055898080610bf6565b91936020600181928787013581550195019201610be0565b0135905089806104f1565b601f19831691845f5260205f20925f5b818110610c8b5750908460019594939210610c72575b505050811b019055610628565b01355f19600384901b60f8161c19169055888080610c65565b91936020600181928787013581550195019201610c4f565b601f19831691845f5260205f20925f5b818110610cef5750908460019594939210610cd6575b505050811b0190556105ca565b01355f19600384901b60f8161c19169055888080610cc9565b91936020600181928787013581550195019201610cb3565b601f19831691845f5260205f20925f5b818110610d535750908460019594939210610d3a575b505050811b01905561056c565b01355f19600384901b60f8161c19169055888080610d2d565b91936020600181928787013581550195019201610d17565b0135905088806104f1565b601f19831691855f5260205f20925f5b818110610dc25750908460019594939210610da9575b505050811b018255610508565b01355f19600384901b60f8161c19169055878080610d9c565b91936020600181928787013581550195019201610d86565b610dfc915060203d602011610e02575b610df48183613296565b8101906133fe565b89610458565b503d610dea565b6040513d5f823e3d90fd5b60405162461bcd60e51b815260206004820152601960248201527f47756e706c61436172643a20696e76616c69642070726f6f66000000000000006044820152606490fd5b81358152602091820191016103a1565b60405162461bcd60e51b815260206004820152601860248201527f47756e706c61436172643a20696e76616c6964207469657200000000000000006044820152606490fd5b60405162461bcd60e51b815260206004820152601c60248201527f47756e706c61436172643a206d696e74206361702072656163686564000000006044820152606490fd5b9050335f52600760205260405f2054108c61033b565b60405162461bcd60e51b815260206004820152602260248201527f47756e706c61436172643a206e6f7420696e2077686974656c69737420706861604482015261736560f01b6064820152608490fd5b634e487b7160e01b5f52602160045260245ffd5b3461023657608036600319011261023657610f86613167565b610f8e61317d565b5f5160206142f05f395f51905f52549060ff8260401c1615916001600160401b0381168015908161144b575b6001149081611441575b159081611438575b506114295767ffffffffffffffff1981166001175f5160206142f05f395f51905f5255826113fd575b5060409283516110058582613296565b601581527411dd5b99185c9a5d534811dd5b9c1b184810d85c99605a1b60208201528451906110348683613296565b600682526547554e504c4160d01b602083015261104f614138565b611057614138565b8051906001600160401b038211610a0c5761107f5f5160206142505f395f51905f5254613326565b601f8111611383575b50602090601f83116001146112e8576110b792915f91836111e25750508160011b915f199060031b1c19161790565b5f5160206142505f395f51905f52555b8051906001600160401b038211610a0c576110ef5f5160206143105f395f51905f5254613326565b601f811161126e575b50602090601f83116001146111ed57918061112c9261115c95945f926111e25750508160011b915f199060031b1c19161790565b5f5160206143105f395f51905f52555b611144614138565b61114c614138565b611154614138565b61025e614138565b60018060a01b03166001600160601b0360a01b5f5416175f55604435600155606435600255600160035561118c57005b60207fc7f505b2f371ae2175ee4913f4499e1f2633a7b5936321eed1cdaeb6115181d29168ff0000000000000000195f5160206142f05f395f51905f5254165f5160206142f05f395f51905f52555160018152a1005b0151905088806104f1565b90601f198316915f5160206143105f395f51905f525f52815f20925f5b818110611256575091600193918561115c9796941061123e575b505050811b015f5160206143105f395f51905f525561113c565b01515f1960f88460031b161c19169055878080611224565b9293602060018192878601518155019501930161120a565b828111156110f8575f5160206143105f395f51905f525f52601f830160051c7ff4bad0a69248f59680a4f2b3000328cec71a413447c96781cfe5996daa8c456e602085106112e0575b81601f9101920160051c03905f5b8281106112d35750506110f8565b5f828201556001016112c5565b5f91506112b7565b90601f198316915f5160206142505f395f51905f525f527f37c58c799b6609234b945e882912ee9ad34948a1dfaa20a97485e1a7752bbf81925f5b81811061136b5750908460019594939210611353575b505050811b015f5160206142505f395f51905f52556110c7565b01515f1960f88460031b161c19169055878080611339565b92936020600181928786015181550195019301611323565b82811115611088575f5160206142505f395f51905f525f52601f830160051c7f37c58c799b6609234b945e882912ee9ad34948a1dfaa20a97485e1a7752bbf81602085106113f5575b81601f9101920160051c03905f5b8281106113e8575050611088565b5f828201556001016113da565b5f91506113cc565b68ffffffffffffffffff191668010000000000000001175f5160206142f05f395f51905f525583610ff5565b63f92ee8a960e01b5f5260045ffd5b90501585610fcc565b303b159150610fc4565b849150610fba565b346102365760403660031901126102365761146c613167565b61147d61147761317d565b916131fa565b9060018060a01b03165f52602052602060ff60405f2054166040519015158152f35b34610236575f366003190112610236576020600954604051908152f35b34610236576060366003190112610236576004356024356001600160401b038111610236576114ef903690600401613193565b91906044356001600160401b03811161023657611510903690600401613193565b939061151b846139c4565b336001600160a01b03909116036117b4575f80546002546040516323b872dd60e01b815233600482015230602482015260448101919091529160209183916064918391906001600160a01b03165af18015610e0957611580915f916117955750613416565b835f526004602052600d60405f20016001600160401b038311610a0c576115b1836115ab8354613326565b836134b5565b5f83601f811160011461173257806115dd925f91611727575b508160011b915f199060031b1c19161790565b90555b835f526004602052600e60405f2001946001600160401b038111610a0c576116128161160c8854613326565b886134b5565b5f95601f821160011461169e579061168e929161166682807fb00a8548efd29cf2372143dc9e462ec8fb8643371e1a15d2c5bf9a268635c851999a5f9161169357508160011b915f199060031b1c19161790565b90555b611680604051958695604087526040870191613530565b918483036020860152613530565b0390a2005b90508501358b6115ca565b601f198216815f5260205f20905f5b81811061170f5750907fb00a8548efd29cf2372143dc9e462ec8fb8643371e1a15d2c5bf9a268635c85197988461168e96959493106116f6575b5050600182811b019055611669565b8401355f19600385901b60f8161c1916905588806116e7565b858a013583556020998a0199600190930192016116ad565b9050860135896115ca565b50601f19841690825f528460205f20925f5b81811061177a575010611761575b5050600183811b0190556115e0565b8501355f19600386901b60f8161c191690558680611752565b88840135855560019094019360209384019388935001611744565b6117ae915060203d602011610e0257610df48183613296565b87610458565b60405162461bcd60e51b815260206004820152601560248201527423bab7383630a1b0b9321d103737ba1037bbb732b960591b6044820152606490fd5b346102365760203660031901126102365760043560606102006040516118168161327a565b82815282602082015282604082015282808201525f60808201525f60a08201525f60c08201528260e08201525f610100820152826101208201525f610140820152826101608201525f610180820152826101a08201525f6101c0820152826101e0820152015260018060a01b0361188c826140ff565b1615611b2d575f526004602052611b2960405f206119b1600e604051926118b28461327a565b6118bb8161335e565b84526118c96001820161335e565b60208501526118da6002820161335e565b60408501526118eb6003820161335e565b606085015261ffff600482015460ff8116608087015260ff8160081c1660a087015260101c1660c08501526119226005820161335e565b60e085015261ffff6006820154166101008501526119426007820161335e565b61012085015261ffff6008820154166101408501526119636009820161335e565b61016085015261ffff600a82015416610180850152611984600b820161335e565b6101a085015261ffff600c820154166101c08501526119a5600d820161335e565b6101e08501520161335e565b61020082015260405191829160208352610200611b14611aee611ac6611a9e611a76611a37611a21611a0b6119f58c6102408c519161022060208201520190613143565b60208b01518d8203601f190160408f0152613143565b60408a01518c8203601f190160608e0152613143565b60608901518b8203601f190160808d0152613143565b60ff60808901511660a08b015260ff60a08901511660c08b015261ffff60c08901511660e08b015260e0880151601f198b8303016101008c0152613143565b61ffff610100880151166101208a0152610120870151601f198a8303016101408b0152613143565b61ffff61014087015116610160890152610160860151601f19898303016101808a0152613143565b61ffff610180860151166101a08801526101a0850151601f19888303016101c0890152613143565b61ffff6101c0850151166101e08701526101e0840151601f198783030184880152613143565b910151838203601f1901610220850152613143565b0390f35b606460405162461bcd60e51b815260206004820152602060248201527f47756e706c61436172643a20746f6b656e20646f6573206e6f742065786973746044820152fd5b34610236575f366003190112610236576020600154604051908152f35b3461023657602036600319011261023657611b29611bad600435614030565b604051918291602083526020830190613143565b3461023657608036600319011261023657611bda613167565b611be261317d565b90604435606435926001600160401b03841161023657611c09610263943690600401613308565b92611c15838383613572565b33613f0c565b34610236575f36600319011261023657611b29604051611c3c604082613296565b60058152640352e302e360dc1b6020820152604051918291602083526020830190613143565b3461023657602036600319011261023657611c7b613ed9565b600435600955005b3461023657604036600319011261023657611c9c613167565b60243590811515809203610236573315611d21576001600160a01b0316908115611d0e57611cc9336131fa565b825f5260205260405f2060ff1981541660ff83161790556040519081527f17307eab39ab6107e8899845ad3d59bd9653f200f220920489ca2b5937696c3160203392a3005b50630b61174360e31b5f5260045260245ffd5b63a9fbf51f60e01b5f525f60045260245ffd5b34610236575f366003190112610236576040515f5f5160206143105f395f51905f5254611d6081613326565b8084529060018116908115611df25750600114611d88575b611b2983611bad81850382613296565b5f5160206143105f395f51905f525f9081527ff4bad0a69248f59680a4f2b3000328cec71a413447c96781cfe5996daa8c456e939250905b808210611dd857509091508101602001611bad611d78565b919260018160209254838588010152019101909291611dc0565b60ff191660208086019190915291151560051b84019091019150611bad9050611d78565b34610236575f366003190112610236575f5160206142705f395f51905f52546040516001600160a01b039091168152602090f35b346102365760203660031901126102365760ff611e6561326a565b165f526008602052602060405f2054604051908152f35b3461023657602036600319011261023657611e95613ed9565b600435600655005b34610236575f36600319011261023657611eb5613ed9565b5f5160206142705f395f51905f5280546001600160a01b031981169091555f906001600160a01b03167f8be0079c531659141344cd1fd0a4f28419497f9722a3daafe3b4186f6b6457e08280a3005b34610236576020366003190112610236576020611f27611f22613167565b613924565b604051908152f35b34610236576020366003190112610236576020611f4d6004356139c4565b6040516001600160a01b039091168152f35b3461023657602036600319011261023657611f78613ed9565b5f80545f5160206142705f395f51905f525460405163a9059cbb60e01b81526001600160a01b0391821660048083019190915235602482015292602092849260449284929091165af1908115610e09575f9161201c575b5015611fd757005b60405162461bcd60e51b815260206004820152601b60248201527f47756e706c61436172643a207769746864726177206661696c656400000000006044820152606490fd5b612035915060203d602011610e0257610df48183613296565b81611fcf565b34610236575f366003190112610236577f00000000000000000000000000000000000000000000000000000000000000006001600160a01b031630036120925760206040515f5160206142905f395f51905f528152f35b63703e46dd60e11b5f5260045ffd5b34610236576020366003190112610236576004355f5160206142b05f395f51905f52548110156120e5576120d66020916138e0565b90549060031b1c604051908152f35b63295f44f760e21b5f525f60045260245260445ffd5b60403660031901126102365761210f613167565b6024356001600160401b0381116102365761212e903690600401613308565b906001600160a01b037f000000000000000000000000000000000000000000000000000000000000000016308114908115612293575b5061209257612171613ed9565b6040516352d1902d60e01b81526001600160a01b0382169290602081600481875afa5f918161225f575b506121b35783634c9c8ce360e01b5f5260045260245ffd5b805f5160206142905f395f51905f5285920361224d5750823b1561223b575f5160206142905f395f51905f5280546001600160a01b031916821790557fbc7cd75a20ee27fd9adebab32041f755214dbc6bffa90cc0225b39da2e5c2d3b5f80a28051156122235761026391614163565b50503461222c57005b63b398979f60e01b5f5260045ffd5b634c9c8ce360e01b5f5260045260245ffd5b632a87526960e21b5f5260045260245ffd5b9091506020813d60201161228b575b8161227b60209383613296565b810103126102365751908561219b565b3d915061226e565b5f5160206142905f395f51905f52546001600160a01b03161415905083612164565b346102365760403660031901126102365760ff6122d061326a565b6122d8613ed9565b165f52600860205260243560405f20555f80f35b34610236575f366003190112610236576020600254604051908152f35b346102365761026361231a366131c0565b906040519261232a602085613296565b5f8452611c15838383613572565b34610236575f366003190112610236575f546040516001600160a01b039091168152602090f35b34610236576020366003190112610236576001600160a01b03612380613167565b165f526007602052602060405f2054604051908152f35b34610236576020366003190112610236576004356003811015610236576123bc613ed9565b60ff8019600554169116176005555f80f35b34610236576040366003190112610236576123e7613167565b602435906123f481613924565b82101561242f5760018060a01b03165f525f5160206142305f395f51905f5260205260405f20905f52602052602060405f2054604051908152f35b63295f44f760e21b5f5260018060a01b031660045260245260445ffd5b34610236575f366003190112610236576020600654604051908152f35b346102365761026361247a366131c0565b91613572565b34610236575f3660031901126102365760205f5160206142b05f395f51905f5254604051908152f35b34610236575f3660031901126102365760ff600554166040516003821015610f59576020918152f35b34610236576020366003190112610236577f5d120aa58f1ab23f01d2ab1ef552d2d2814168e0fbb3714c6b329faa76bb66096020600435612511613ed9565b80600255604051908152a1005b3461023657604036600319011261023657612537613167565b602435612543816139c4565b331515806125f7575b806125d4575b6125c15781906001600160a01b0384811691167f8c5be1e5ebec7d5bd14f71427d1e84f3dd0314c0f7b2291e5b200ac8c7c3b9255f80a45f9081525f5160206142d05f395f51905f526020526040902080546001600160a01b0319166001600160a01b03909216919091179055005b63a9fbf51f60e01b5f523360045260245ffd5b506125de816131fa565b335f908152602091909152604090205460ff1615612552565b506001600160a01b03811633141561254c565b3461023657606036600319011261023657612623613167565b6024356001600160401b03811161023657612642903690600401613193565b60443592916001600160401b03841161023657836004019061022060031986360301126102365760ff600554166003811015610f5957600203612f59575f80546001546040516323b872dd60e01b81523360048201523060248201526044810191909152929160209184916064918391906001600160a01b03165af1908115610e09576126dc610497926126e9945f91610dda5750613416565b6003549461048386613461565b815f52600460205260405f20906127008180613483565b906001600160401b038211610a0c5761271d826104d18654613326565b5f90601f8311600114612ef55761274a92915f9183610d6b5750508160011b915f199060031b1c19161790565b82555b6001820161275e6024870183613483565b906001600160401b038211610a0c5761277b826105368554613326565b5f90601f8311600114612e91576127a892915f9183610c345750508160011b915f199060031b1c19161790565b90555b600282016127bc6044870183613483565b906001600160401b038211610a0c576127d9826105368554613326565b5f90601f8311600114612e2d5761280692915f9183610c345750508160011b915f199060031b1c19161790565b90555b6003820161281a6064870183613483565b906001600160401b038211610a0c57612837826105368554613326565b5f90601f8311600114612dc95761286492915f9183610c345750508160011b915f199060031b1c19161790565b90555b60848501916004810160ff61287b85613513565b1681549061ff0061288e60a48b01613513565b60081b169063ffff00006128a460c48c01613521565b60101b169263ffffffff19161717179055600581016128c660e4880184613483565b906001600160401b038211610a0c576128e3826105368554613326565b5f90601f8311600114612d655761291092915f9183610a995750508160011b915f199060031b1c19161790565b90555b6129206101048701613521565b61ffff60068301911661ffff1982541617905560078101612945610124880184613483565b906001600160401b038211610a0c57612962826105368554613326565b5f90601f8311600114612d015761298f92915f9183610a995750508160011b915f199060031b1c19161790565b90555b61299f6101448701613521565b61ffff60088301911661ffff19825416179055600981016129c4610164880184613483565b906001600160401b038211610a0c576129e1826105368554613326565b5f90601f8311600114612c9d57612a0e92915f9183610a995750508160011b915f199060031b1c19161790565b90555b612a1e6101848701613521565b61ffff600a8301911661ffff19825416179055600b8101612a436101a4880184613483565b906001600160401b038211610a0c57612a60826105368554613326565b5f90601f8311600114612c3957612a8d92915f9183610a995750508160011b915f199060031b1c19161790565b90555b612a9d6101c48701613521565b61ffff600c8301911661ffff19825416179055600d8101612ac26101e4880184613483565b906001600160401b038211610a0c57612adf826105368554613326565b5f90601f8311600114612be557926108d883600e94612b179794610204975f92610a205750508160011b915f199060031b1c19161790565b6001600160401b038197929711610a0c57602096612b39826105368554613326565b5f90601f8311600114612b82575f5160206141f05f395f51905f52946109609461094f858a9b9661097996610958965f926109845750508160011b915f199060031b1c19161790565b601f19831691845f52895f20925f5b818110612bce57509460018561097995610958955f5160206141f05f395f51905f529a958d9e996109609b106109dc57505050811b019055610952565b91938b600181928787013581550195019201612b91565b601f19831691845f5260205f20925f5b818110612c21575093612b179693610204969360019383600e9810610a6857505050811b0190556108db565b91936020600181928787013581550195019201612bf5565b601f19831691845f5260205f20925f5b818110612c855750908460019594939210612c6c575b505050811b019055612a90565b01355f19600384901b60f8161c19169055898080612c5f565b91936020600181928787013581550195019201612c49565b601f19831691845f5260205f20925f5b818110612ce95750908460019594939210612cd0575b505050811b019055612a11565b01355f19600384901b60f8161c19169055898080612cc3565b91936020600181928787013581550195019201612cad565b601f19831691845f5260205f20925f5b818110612d4d5750908460019594939210612d34575b505050811b019055612992565b01355f19600384901b60f8161c19169055898080612d27565b91936020600181928787013581550195019201612d11565b601f19831691845f5260205f20925f5b818110612db15750908460019594939210612d98575b505050811b019055612913565b01355f19600384901b60f8161c19169055898080612d8b565b91936020600181928787013581550195019201612d75565b601f19831691845f5260205f20925f5b818110612e155750908460019594939210612dfc575b505050811b019055612867565b01355f19600384901b60f8161c19169055888080612def565b91936020600181928787013581550195019201612dd9565b601f19831691845f5260205f20925f5b818110612e795750908460019594939210612e60575b505050811b019055612809565b01355f19600384901b60f8161c19169055888080612e53565b91936020600181928787013581550195019201612e3d565b601f19831691845f5260205f20925f5b818110612edd5750908460019594939210612ec4575b505050811b0190556127ab565b01355f19600384901b60f8161c19169055888080612eb7565b91936020600181928787013581550195019201612ea1565b601f19831691855f5260205f20925f5b818110612f415750908460019594939210612f28575b505050811b01825561274d565b01355f19600384901b60f8161c19169055878080612f1b565b91936020600181928787013581550195019201612f05565b60405162461bcd60e51b815260206004820152601f60248201527f47756e706c61436172643a206e6f7420696e207075626c6963207068617365006044820152606490fd5b34610236576020366003190112610236576020611f4d600435612fc0816139c4565b505f9081525f5160206142d05f395f51905f5260205260409020546001600160a01b031690565b34610236575f366003190112610236576040515f5f5160206142505f395f51905f525461301381613326565b8084529060018116908115611df2575060011461303a57611b2983611bad81850382613296565b5f5160206142505f395f51905f525f9081527f37c58c799b6609234b945e882912ee9ad34948a1dfaa20a97485e1a7752bbf81939250905b80821061308a57509091508101602001611bad611d78565b919260018160209254838588010152019101909291613072565b34610236576020366003190112610236576004359063ffffffff60e01b82168092036102365760209163780e9d6360e01b81149081156130e6575b5015158152f35b632483248360e11b811491508115613100575b50836130df565b6380ac58cd60e01b811491508115613132575b8115613121575b50836130f9565b6301ffc9a760e01b1490508361311a565b635b5e139f60e01b81149150613113565b805180835260209291819084018484015e5f828201840152601f01601f1916010190565b600435906001600160a01b038216820361023657565b602435906001600160a01b038216820361023657565b9181601f84011215610236578235916001600160401b038311610236576020838186019501011161023657565b6060906003190112610236576004356001600160a01b038116810361023657906024356001600160a01b0381168103610236579060443590565b6001600160a01b03165f9081527f80bb2b638cc20bc4d0a60d66940f3ab4a00c1d7b313497ca82fb0b4ab00793056020526040902090565b6001600160a01b03165f9081527f80bb2b638cc20bc4d0a60d66940f3ab4a00c1d7b313497ca82fb0b4ab00793036020526040902090565b6004359060ff8216820361023657565b61022081019081106001600160401b03821117610a0c57604052565b90601f801991011681019081106001600160401b03821117610a0c57604052565b6001600160401b038111610a0c57601f01601f191660200190565b9291926132de826132b7565b916132ec6040519384613296565b829481845281830111610236578281602093845f960137010152565b9080601f8301121561023657816020613323933591016132d2565b90565b90600182811c92168015613354575b602083101461334057565b634e487b7160e01b5f52602260045260245ffd5b91607f1691613335565b9060405191825f82549261337184613326565b80845293600181169081156133dc5750600114613398575b5061339692500383613296565b565b90505f9291925260205f20905f915b8183106133c0575050906020613396928201015f613389565b60209193508060019154838589010152019101909184926133a7565b90506020925061339694915060ff191682840152151560051b8201015f613389565b90816020910312610236575180151581036102365790565b1561341d57565b606460405162461bcd60e51b815260206004820152602060248201527f47756e706c61436172643a2055534443207472616e73666572206661696c65646044820152fd5b5f19811461346f5760010190565b634e487b7160e01b5f52601160045260245ffd5b903590601e198136030182121561023657018035906001600160401b0382116102365760200191813603831361023657565b919091601f83116134c6575b505050565b8183116134d257505050565b5f5260205f206020601f830160051c921061350b575b81601f9101920160051c03905f5b828110156134c1575f828201556001016134f6565b5f91506134e8565b3560ff811681036102365790565b3561ffff811681036102365790565b908060209392818452848401375f828201840152601f01601f1916010190565b9161356b60209260ff92969596604086526040860191613530565b9416910152565b9091906001600160a01b03831680156138cd5761358e836140ff565b903315158061381f575b506001600160a01b03821694851580156137e3575b6135b682613232565b60018154019055855f527f80bb2b638cc20bc4d0a60d66940f3ab4a00c1d7b313497ca82fb0b4ab007930260205260405f20836001600160601b0360a01b8254161790558583887fddf252ad1be2c89b69c2b068fc378daa952ba7f163c4a11628f55a4df523b3ef5f80a415613736575f5160206142b05f395f51905f5254855f527f645e039705490088daad89bae25049a34f4a9072d398537b1ab2425f24cbed036020528060405f2055600160401b811015610a0c578561368e8260016136a694015f5160206142b05f395f51905f52556138e0565b90919082549060031b91821b915f19901b1916179055565b8186036136de575b5050506001600160a01b03168083036136c657505050565b6364283d7b60e01b5f5260045260245260445260645ffd5b6136e790613924565b5f1981019190821161346f575f525f5160206142305f395f51905f5260205260405f20815f526020528360405f2055835f525f5160206142105f395f51905f5260205260405f20555f806136ae565b8582146136a65761374683613924565b855f525f5160206142105f395f51905f5260205260405f205490875f525f5160206142305f395f51905f5260205260405f20918181036137ac575b50865f525f5160206142105f395f51905f526020525f60408120555f526020525f60408120556136a6565b815f528260205260405f2054815f52836020528060405f20555f525f5160206142105f395f51905f5260205260405f20555f613781565b5f8681525f5160206142d05f395f51905f526020526040902080546001600160a01b031916905561381384613232565b80545f190190556135ad565b80613867575b15613830575f613598565b836001600160a01b03831661385157637e27328960e01b5f5260045260245ffd5b63177e802f60e01b5f523360045260245260445ffd5b506001600160a01b038216331480156138ab575b8061382557505f8481525f5160206142d05f395f51905f5260205260409020546001600160a01b03163314613825565b506138b5826131fa565b335f908152602091909152604090205460ff1661387b565b633250574960e11b5f525f60045260245ffd5b5f5160206142b05f395f51905f5254811015613910575f5160206142b05f395f51905f525f5260205f2001905f90565b634e487b7160e01b5f52603260045260245ffd5b6001600160a01b038116156139405761393c90613232565b5490565b6322718ad960e21b5f525f60045260245ffd5b6001600160a01b031680156139b1575f5160206142705f395f51905f5280546001600160a01b0319811683179091556001600160a01b03167f8be0079c531659141344cd1fd0a4f28419497f9722a3daafe3b4186f6b6457e05f80a3565b631e4fbdf760e01b5f525f60045260245ffd5b6139cd816140ff565b906001600160a01b038216156139e1575090565b637e27328960e01b5f5260045260245ffd5b9060209060405190613a058383613296565b5f82526001600160a01b0384169384156138cd57613a22826140ff565b6001600160a01b03811680158015929190889084613d58575b613a4486613232565b60018154019055865f527f80bb2b638cc20bc4d0a60d66940f3ab4a00c1d7b313497ca82fb0b4ab0079302895260405f20826001600160601b0360a01b8254161790558682847fddf252ad1be2c89b69c2b068fc378daa952ba7f163c4a11628f55a4df523b3ef5f80a415613cb157505f5160206142b05f395f51905f525490855f527f645e039705490088daad89bae25049a34f4a9072d398537b1ab2425f24cbed0388528160405f2055600160401b821015610a0c57613b1d8661368e8460018d96015f5160206142b05f395f51905f52556138e0565b03613c5e575b50613c4b573b613b34575b50505050565b91613b7191819495936040519384928392630a85bd0160e11b84523360048501525f60248501526044840152608060648401526084830190613143565b03815f885af15f9181613c0b575b50613bd45750503d15613bcc573d90613b97826132b7565b91613ba56040519384613296565b82523d5f8284013e5b81519182613bc95783633250574960e11b5f5260045260245ffd5b01fd5b606090613bae565b909291506001600160e01b03191663757a42ff60e11b01613bf957505f808080613b2e565b633250574960e11b5f5260045260245ffd5b9091508381813d8311613c44575b613c238183613296565b8101031261023657516001600160e01b03198116810361023657905f613b7f565b503d613c19565b6339e3563760e11b5f525f60045260245ffd5b613c6783613924565b5f19810190811161346f57875f525f5160206142305f395f51905f52875260405f20815f5287528460405f2055845f525f5160206142105f395f51905f52875260405f2055613b23565b90808214613b1d57613cc283613924565b865f525f5160206142105f395f51905f52895260405f205490825f525f5160206142305f395f51905f528a5260405f2091818103613d24575b50875f525f5160206142105f395f51905f528a525f60408120555f5288525f6040812055613b1d565b815f52828b5260405f2054815f52838c528060405f20555f525f5160206142105f395f51905f528b5260405f20555f613cfb565b5f8781525f5160206142d05f395f51905f526020526040902080546001600160a01b0319169055613d8884613232565b80545f19019055613a3b565b919091805f527f0542a41881ee128a365a727b282c86fa859579490b9bb45aab8503648c8e790060205260405f2083516001600160401b038111610a0c57613de681613de08454613326565b846134b5565b6020601f8211600114613e5157816020949392613e3a927ff8e1a15aba9398e019f0b49df1a4fde98ee17ae345cb5f6b5e2c27f5033e8ce797985f92613e465750508160011b915f199060031b1c19161790565b90555b604051908152a1565b015190505f806104f1565b601f19821695835f52815f20965f5b818110613ec1575096600192849260209796957ff8e1a15aba9398e019f0b49df1a4fde98ee17ae345cb5f6b5e2c27f5033e8ce7999a10613ea9575b505050811b019055613e3d565b01515f1960f88460031b161c191690555f8080613e9c565b83830151895560019098019760209384019301613e60565b5f5160206142705f395f51905f52546001600160a01b03163303613ef957565b63118cdaa760e01b5f523360045260245ffd5b823b613f1a575b5050505050565b604051630a85bd0160e11b81526001600160a01b039182166004820152918116602483015260448201939093526080606482015291169160209082908190613f66906084830190613143565b03815f865af15f9181613feb575b50613fc957503d15613fc2573d613f8a816132b7565b90613f986040519283613296565b81523d5f602083013e5b80519081613fbd5782633250574960e11b5f5260045260245ffd5b602001fd5b6060613fa2565b6001600160e01b03191663757a42ff60e11b01613bf957505f80808080613f13565b9091506020813d602011614028575b8161400760209383613296565b8101031261023657516001600160e01b03198116810361023657905f613f74565b3d9150613ffa565b614039816139c4565b5060209060405161404a8382613296565b5f8152815f527f0542a41881ee128a365a727b282c86fa859579490b9bb45aab8503648c8e7900835261407f60405f2061335e565b8151156140f857808491516140bd5750505061409a906139c4565b505f6040516140a98382613296565b526140b76040519182613296565b5f815290565b613323935081906040519584879551918291018487015e8401908282015f8152815193849201905e01015f815203601f198101835282613296565b9250505090565b5f9081527f80bb2b638cc20bc4d0a60d66940f3ab4a00c1d7b313497ca82fb0b4ab007930260205260409020546001600160a01b031690565b60ff5f5160206142f05f395f51905f525460401c161561415457565b631afcd79f60e31b5f5260045ffd5b905f8091602081519101845af480806141dc575b156141975750506040513d81523d5f602083013e60203d82010160405290565b156141bc57639996b31560e01b5f9081526001600160a01b0391909116600452602490fd5b3d156141cd576040513d5f823e3d90fd5b63d6bda27560e01b5f5260045ffd5b503d1515806141775750813b151561417756fe9e6a9f9a44efe8783affee48da148f2f5899daf9eca355345ac09fa35071e6db645e039705490088daad89bae25049a34f4a9072d398537b1ab2425f24cbed01645e039705490088daad89bae25049a34f4a9072d398537b1ab2425f24cbed0080bb2b638cc20bc4d0a60d66940f3ab4a00c1d7b313497ca82fb0b4ab00793009016d09d72d40fdae2fd8ceac6b6234c7706214fd39c1cd1e609a0528c199300360894a13ba1a3210667c828492db98dca3e2076cc3735a920a3ca505d382bbc645e039705490088daad89bae25049a34f4a9072d398537b1ab2425f24cbed0280bb2b638cc20bc4d0a60d66940f3ab4a00c1d7b313497ca82fb0b4ab0079304f0c57e16840df040f15088dc2f81fe391c3923bec73e23a9662efc9c229c6a0080bb2b638cc20bc4d0a60d66940f3ab4a00c1d7b313497ca82fb0b4ab0079301a2646970667358221220f28e66d39ad965519fdbc07c946b32068bee11adcaa7e31678d6e99c835b82c964736f6c63430008210033f0c57e16840df040f15088dc2f81fe391c3923bec73e23a9662efc9c229c6a00","linkReferences":{}},"methodIdentifiers":{"UPGRADE_INTERFACE_VERSION()":"ad3cb1cc","approve(address,uint256)":"095ea7b3","balanceOf(address)":"70a08231","cosmeticPriceUsdc()":"43dd1081","getApproved(uint256)":"081812fc","getTraits(uint256)":"e1dc0761","initialize(address,address,uint256,uint256)":"eb990c59","isApprovedForAll(address,address)":"e985e9c5","merkleRoot()":"2eb4a7ab","mintCard(address,string,(string,string,string,string,uint8,uint8,uint16,string,uint16,string,uint16,string,uint16,string,uint16,string,string))":"089ea953","mintCardWhitelist(address,string,(string,string,string,string,uint8,uint8,uint16,string,uint16,string,uint16,string,uint16,string,uint16,string,string),uint8,bytes32[])":"f007e2ab","mintPhase()":"17881cbf","mintPriceUsdc()":"d929df03","name()":"06fdde03","owner()":"8da5cb5b","ownerOf(uint256)":"6352211e","proxiableUUID()":"52d1902d","renounceOwnership()":"715018a6","safeTransferFrom(address,address,uint256)":"42842e0e","safeTransferFrom(address,address,uint256,bytes)":"b88d4fde","setApprovalForAll(address,bool)":"a22cb465","setCosmeticPrice(uint256)":"0cb77c20","setMerkleRoot(bytes32)":"7cb64759","setMintPhase(uint8)":"31c07bbf","setMintPrice(uint256)":"f4a0a528","setTierPrice(uint8,uint256)":"4a5c6f8c","setWhitelistMintCap(uint256)":"ac802935","supportsInterface(bytes4)":"01ffc9a7","symbol()":"95d89b41","tierPrice(uint8)":"8b542526","tokenByIndex(uint256)":"4f6ccce7","tokenOfOwnerByIndex(address,uint256)":"2f745c59","tokenURI(uint256)":"c87b56dd","totalSupply()":"18160ddd","transferFrom(address,address,uint256)":"23b872dd","transferOwnership(address)":"f2fde38b","updateCosmetics(uint256,string,string)":"e2c22457","upgradeToAndCall(address,bytes)":"4f1ef286","usdc()":"3e413bee","whitelistMintCap()":"e7ad0257","whitelistMintCount(address)":"3bdf4ac6","withdrawUsdc(uint256)":"5b06dece"},"id":76}