{"abi":[{"type":"constructor","inputs":[],"stateMutability":"nonpayable"},{"type":"function","name":"UPGRADE_INTERFACE_VERSION","inputs":[],"outputs":[{"name":"","type":"string","internalType":"string"}],"stateMutability":"view"},{"type":"function","name":"authorizedFeeRouters","inputs":[{"name":"","type":"address","internalType":"address"}],"outputs":[{"name":"","type":"bool","internalType":"bool"}],"stateMutability":"view"},{"type":"function","name":"claimRewards","inputs":[],"outputs":[],"stateMutability":"nonpayable"},{"type":"function","name":"earned","inputs":[{"name":"account","type":"address","internalType":"address"}],"outputs":[{"name":"","type":"uint256","internalType":"uint256"}],"stateMutability":"view"},{"type":"function","name":"emergencyWithdraw","inputs":[{"name":"token","type":"address","internalType":"address"},{"name":"amount","type":"uint256","internalType":"uint256"}],"outputs":[],"stateMutability":"nonpayable"},{"type":"function","name":"gndm","inputs":[],"outputs":[{"name":"","type":"address","internalType":"contract IERC20"}],"stateMutability":"view"},{"type":"function","name":"initialize","inputs":[{"name":"owner_","type":"address","internalType":"address"},{"name":"gndm_","type":"address","internalType":"address"}],"outputs":[],"stateMutability":"nonpayable"},{"type":"function","name":"lastApplicableTime","inputs":[],"outputs":[{"name":"","type":"uint256","internalType":"uint256"}],"stateMutability":"view"},{"type":"function","name":"lastUpdateTime","inputs":[],"outputs":[{"name":"","type":"uint256","internalType":"uint256"}],"stateMutability":"view"},{"type":"function","name":"lockUntil","inputs":[{"name":"","type":"address","internalType":"address"}],"outputs":[{"name":"","type":"uint256","internalType":"uint256"}],"stateMutability":"view"},{"type":"function","name":"notifyRewardAmount","inputs":[{"name":"amount","type":"uint256","internalType":"uint256"},{"name":"duration","type":"uint256","internalType":"uint256"}],"outputs":[],"stateMutability":"nonpayable"},{"type":"function","name":"owner","inputs":[],"outputs":[{"name":"","type":"address","internalType":"address"}],"stateMutability":"view"},{"type":"function","name":"pause","inputs":[],"outputs":[],"stateMutability":"nonpayable"},{"type":"function","name":"paused","inputs":[],"outputs":[{"name":"","type":"bool","internalType":"bool"}],"stateMutability":"view"},{"type":"function","name":"periodFinish","inputs":[],"outputs":[{"name":"","type":"uint256","internalType":"uint256"}],"stateMutability":"view"},{"type":"function","name":"proxiableUUID","inputs":[],"outputs":[{"name":"","type":"bytes32","internalType":"bytes32"}],"stateMutability":"view"},{"type":"function","name":"receiveGameFees","inputs":[{"name":"amount","type":"uint256","internalType":"uint256"}],"outputs":[],"stateMutability":"nonpayable"},{"type":"function","name":"renounceOwnership","inputs":[],"outputs":[],"stateMutability":"nonpayable"},{"type":"function","name":"rewardEligibleAt","inputs":[{"name":"","type":"address","internalType":"address"}],"outputs":[{"name":"","type":"uint256","internalType":"uint256"}],"stateMutability":"view"},{"type":"function","name":"rewardPerToken","inputs":[],"outputs":[{"name":"","type":"uint256","internalType":"uint256"}],"stateMutability":"view"},{"type":"function","name":"rewardPerTokenStored","inputs":[],"outputs":[{"name":"","type":"uint256","internalType":"uint256"}],"stateMutability":"view"},{"type":"function","name":"rewardRate","inputs":[],"outputs":[{"name":"","type":"uint256","internalType":"uint256"}],"stateMutability":"view"},{"type":"function","name":"rewards","inputs":[{"name":"","type":"address","internalType":"address"}],"outputs":[{"name":"","type":"uint256","internalType":"uint256"}],"stateMutability":"view"},{"type":"function","name":"setFeeRouter","inputs":[{"name":"addr","type":"address","internalType":"address"},{"name":"authorized","type":"bool","internalType":"bool"}],"outputs":[],"stateMutability":"nonpayable"},{"type":"function","name":"stake","inputs":[{"name":"amount","type":"uint256","internalType":"uint256"}],"outputs":[],"stateMutability":"nonpayable"},{"type":"function","name":"stakedBalance","inputs":[{"name":"","type":"address","internalType":"address"}],"outputs":[{"name":"","type":"uint256","internalType":"uint256"}],"stateMutability":"view"},{"type":"function","name":"totalStaked","inputs":[],"outputs":[{"name":"","type":"uint256","internalType":"uint256"}],"stateMutability":"view"},{"type":"function","name":"transferOwnership","inputs":[{"name":"newOwner","type":"address","internalType":"address"}],"outputs":[],"stateMutability":"nonpayable"},{"type":"function","name":"unpause","inputs":[],"outputs":[],"stateMutability":"nonpayable"},{"type":"function","name":"unstake","inputs":[{"name":"amount","type":"uint256","internalType":"uint256"}],"outputs":[],"stateMutability":"nonpayable"},{"type":"function","name":"upgradeToAndCall","inputs":[{"name":"newImplementation","type":"address","internalType":"address"},{"name":"data","type":"bytes","internalType":"bytes"}],"outputs":[],"stateMutability":"payable"},{"type":"function","name":"userRewardPerTokenPaid","inputs":[{"name":"","type":"address","internalType":"address"}],"outputs":[{"name":"","type":"uint256","internalType":"uint256"}],"stateMutability":"view"},{"type":"event","name":"FeeRouterSet","inputs":[{"name":"addr","type":"address","indexed":true,"internalType":"address"},{"name":"authorized","type":"bool","indexed":false,"internalType":"bool"}],"anonymous":false},{"type":"event","name":"Initialized","inputs":[{"name":"version","type":"uint64","indexed":false,"internalType":"uint64"}],"anonymous":false},{"type":"event","name":"OwnershipTransferred","inputs":[{"name":"previousOwner","type":"address","indexed":true,"internalType":"address"},{"name":"newOwner","type":"address","indexed":true,"internalType":"address"}],"anonymous":false},{"type":"event","name":"Paused","inputs":[{"name":"account","type":"address","indexed":false,"internalType":"address"}],"anonymous":false},{"type":"event","name":"RewardAdded","inputs":[{"name":"amount","type":"uint256","indexed":false,"internalType":"uint256"}],"anonymous":false},{"type":"event","name":"RewardClaimed","inputs":[{"name":"user","type":"address","indexed":true,"internalType":"address"},{"name":"amount","type":"uint256","indexed":false,"internalType":"uint256"}],"anonymous":false},{"type":"event","name":"RewardForfeited","inputs":[{"name":"user","type":"address","indexed":true,"internalType":"address"},{"name":"amount","type":"uint256","indexed":false,"internalType":"uint256"}],"anonymous":false},{"type":"event","name":"Staked","inputs":[{"name":"user","type":"address","indexed":true,"internalType":"address"},{"name":"amount","type":"uint256","indexed":false,"internalType":"uint256"},{"name":"lockUntil","type":"uint256","indexed":false,"internalType":"uint256"},{"name":"rewardEligibleAt","type":"uint256","indexed":false,"internalType":"uint256"}],"anonymous":false},{"type":"event","name":"Unpaused","inputs":[{"name":"account","type":"address","indexed":false,"internalType":"address"}],"anonymous":false},{"type":"event","name":"Unstaked","inputs":[{"name":"user","type":"address","indexed":true,"internalType":"address"},{"name":"amount","type":"uint256","indexed":false,"internalType":"uint256"}],"anonymous":false},{"type":"event","name":"Upgraded","inputs":[{"name":"implementation","type":"address","indexed":true,"internalType":"address"}],"anonymous":false},{"type":"error","name":"AddressEmptyCode","inputs":[{"name":"target","type":"address","internalType":"address"}]},{"type":"error","name":"ERC1967InvalidImplementation","inputs":[{"name":"implementation","type":"address","internalType":"address"}]},{"type":"error","name":"ERC1967NonPayable","inputs":[]},{"type":"error","name":"EnforcedPause","inputs":[]},{"type":"error","name":"ExpectedPause","inputs":[]},{"type":"error","name":"FailedCall","inputs":[]},{"type":"error","name":"InvalidInitialization","inputs":[]},{"type":"error","name":"NoPendingRewards","inputs":[]},{"type":"error","name":"NoStakeToUnstake","inputs":[]},{"type":"error","name":"NotEligibleYet","inputs":[{"name":"eligibleAt","type":"uint256","internalType":"uint256"}]},{"type":"error","name":"NotInitializing","inputs":[]},{"type":"error","name":"OwnableInvalidOwner","inputs":[{"name":"owner","type":"address","internalType":"address"}]},{"type":"error","name":"OwnableUnauthorizedAccount","inputs":[{"name":"account","type":"address","internalType":"address"}]},{"type":"error","name":"ReentrancyGuardReentrantCall","inputs":[]},{"type":"error","name":"SafeERC20FailedOperation","inputs":[{"name":"token","type":"address","internalType":"address"}]},{"type":"error","name":"StillLocked","inputs":[{"name":"unlockTime","type":"uint256","internalType":"uint256"}]},{"type":"error","name":"UUPSUnauthorizedCallContext","inputs":[]},{"type":"error","name":"UUPSUnsupportedProxiableUUID","inputs":[{"name":"slot","type":"bytes32","internalType":"bytes32"}]},{"type":"error","name":"Unauthorized","inputs":[]},{"type":"error","name":"ZeroAddress","inputs":[]},{"type":"error","name":"ZeroAmount","inputs":[]}],"bytecode":{"object":"0x60a080604052346100e6573060805260017f9b779b17422d0df92223018b32b4d1fa46e071723d6817e2486d003becc55f00555f5160206118ab5f395f51905f525460ff8160401c166100d7576002600160401b03196001600160401b03821601610084575b6040516117c090816100eb82396080518181816109dd0152610ab90152f35b6001600160401b0319166001600160401b039081175f5160206118ab5f395f51905f525581527fc7f505b2f371ae2175ee4913f4499e1f2633a7b5936321eed1cdaeb6115181d290602090a15f80610065565b63f92ee8a960e01b5f5260045ffd5b5f80fdfe60806040526004361015610011575f80fd5b5f3560e01c80628cc262146112b757806301a248d8146112905780630700037d1461125857806323fac2631461123e578063246132f9146110f15780632e17de7814610fad578063372500ab14610e8d5780633f4ba83a14610e0f578063485cc95514610c495780634f1ef28614610a3157806352d1902d146109cb5780635c975abb1461099d5780635cfcff6a1461090a57806360217267146108d25780636900db94146107a1578063715018a61461073a5780637b0a47ee1461071d578063817b1cd2146107005780638456cb591461068f578063892bad16146106575780638b8763471461061f5780638da5cb5b146105eb57806395ccea671461052f578063a694fc3a146102f3578063ad3cb1cc14610295578063c8f33c9114610278578063cd3daf9d14610256578063df136d6514610239578063eba74ee914610201578063ebe2b12b146101e4578063f2fde38b146101b95763f4954b0414610178575f80fd5b346101b55760203660031901126101b5576001600160a01b036101996112da565b165f52600b602052602060ff60405f2054166040519015158152f35b5f80fd5b346101b55760203660031901126101b5576101e26101d56112da565b6101dd6114ef565b611446565b005b346101b5575f3660031901126101b5576020600854604051908152f35b346101b55760203660031901126101b5576001600160a01b036102226112da565b165f526003602052602060405f2054604051908152f35b346101b5575f3660031901126101b5576020600554604051908152f35b346101b5575f3660031901126101b55760206102706113e8565b604051908152f35b346101b5575f3660031901126101b5576020600754604051908152f35b346101b5575f3660031901126101b55760408051906102b481836112f0565b600582526020820191640352e302e360dc1b83528151928391602083525180918160208501528484015e5f828201840152601f01601f19168101030190f35b346101b55760203660031901126101b55760043561030f6114b7565b6103176115b4565b61031f6113e8565b60055561032a6113d7565b60075533610504575b80156104f557335f52600460205260405f2054335f52600160205260405f2061035d838254611350565b905561036b82600254611350565b6002556201518042018042116104e157335f52600360205260405f205562093a8042018042116104e157335f52600460205260405f20556103b98260018060a01b035f541630903390611522565b335f52600a60205260405f20549081610442575b82600554335f52600960205260405f2055335f52600360205260405f2054335f52600460205260405f205490604051928352602083015260408201527fb4caaf29adda3eefee3ad552a8e85058589bf834c7466cae4ee58787f70589ed60603392a260015f51602061174b5f395f51905f5255005b42106104a257335f818152600a602052604081208190555461046e9183916001600160a01b03166115db565b6040519081527f106f923f993c2149d49b4255ff723acafa1f2d94393f561d3eda32ae348f724160203392a25b81806103cd565b6040519081527f13cc1c835292398b4f1062a0dbaed54c860ff73ce245d8e4db91b06169f77a2760203392a2335f52600a6020525f604081205561049b565b634e487b7160e01b5f52601160045260245ffd5b631f2a200560e01b5f5260045ffd5b61050d3361135d565b335f52600a60205260405f2055600554335f52600960205260405f2055610333565b346101b55760403660031901126101b5576105486112da565b6105506114b7565b6105586114ef565b5f546001600160a01b03918216911681146105a6575f5160206116eb5f395f51905f525461059391602435916001600160a01b0316906115db565b60015f51602061174b5f395f51905f5255005b60405162461bcd60e51b815260206004820152601860248201527f474e444d5374616b696e673a2075736520756e7374616b6500000000000000006044820152606490fd5b346101b5575f3660031901126101b5575f5160206116eb5f395f51905f52546040516001600160a01b039091168152602090f35b346101b55760203660031901126101b5576001600160a01b036106406112da565b165f526009602052602060405f2054604051908152f35b346101b55760203660031901126101b5576001600160a01b036106786112da565b165f526004602052602060405f2054604051908152f35b346101b5575f3660031901126101b5576106a76114ef565b6106af6115b4565b600160ff195f51602061172b5f395f51905f525416175f51602061172b5f395f51905f52557f62e78cea01bee320cd4e420270b5ea74000d11b0c9f74754ebdbfc544b05a2586020604051338152a1005b346101b5575f3660031901126101b5576020600254604051908152f35b346101b5575f3660031901126101b5576020600654604051908152f35b346101b5575f3660031901126101b5576107526114ef565b5f5160206116eb5f395f51905f5280546001600160a01b031981169091555f906001600160a01b03167f8be0079c531659141344cd1fd0a4f28419497f9722a3daafe3b4186f6b6457e08280a3005b346101b55760203660031901126101b5576004356107bd6114b7565b6107c56113e8565b6005556107d06113d7565b600755335f52600b60205260ff60405f205416156108c45780156104f5575f54610808908290309033906001600160a01b0316611522565b600854428111610870575062278d00810460065562278d0042018042116104e1577fde88a922e0d3b88b24e9623efeb464919c6bf9f66857a65e2bfcf2ce87a9433d916020916008555b42600755604051908152a160015f51602061174b5f395f51905f5255005b7fde88a922e0d3b88b24e9623efeb464919c6bf9f66857a65e2bfcf2ce87a9433d916108bc6108a26020934290611312565b6108b76108b16006548361131f565b84611350565b611332565b600655610852565b6282b42960e81b5f5260045ffd5b346101b55760203660031901126101b5576001600160a01b036108f36112da565b165f526001602052602060405f2054604051908152f35b346101b55760403660031901126101b5576109236112da565b602435908115158092036101b5576109396114ef565b6001600160a01b031690811561098e5760207fdd6aefb26fd19a7300040a3e8a7b54d21c52caa0cd12f3fd116ce2b03cd7ee5291835f52600b825260405f2060ff1981541660ff8316179055604051908152a2005b63d92e233d60e01b5f5260045ffd5b346101b5575f3660031901126101b557602060ff5f51602061172b5f395f51905f5254166040519015158152f35b346101b5575f3660031901126101b5577f00000000000000000000000000000000000000000000000000000000000000006001600160a01b03163003610a225760206040515f51602061170b5f395f51905f528152f35b63703e46dd60e11b5f5260045ffd5b60403660031901126101b557610a456112da565b6024359067ffffffffffffffff82116101b557366023830112156101b557816004013567ffffffffffffffff8111610c355760405192610a8f601f8301601f1916602001856112f0565b81845236602483830101116101b557815f9260246020930183870137840101526001600160a01b037f000000000000000000000000000000000000000000000000000000000000000016308114908115610c13575b50610a2257610af16114ef565b6040516352d1902d60e01b81526001600160a01b0382169290602081600481875afa5f9181610bdf575b50610b335783634c9c8ce360e01b5f5260045260245ffd5b805f51602061170b5f395f51905f52859203610bcd5750823b15610bbb575f51602061170b5f395f51905f5280546001600160a01b031916821790557fbc7cd75a20ee27fd9adebab32041f755214dbc6bffa90cc0225b39da2e5c2d3b5f80a2805115610ba3576101e29161165e565b505034610bac57005b63b398979f60e01b5f5260045ffd5b634c9c8ce360e01b5f5260045260245ffd5b632a87526960e21b5f5260045260245ffd5b9091506020813d602011610c0b575b81610bfb602093836112f0565b810103126101b557519085610b1b565b3d9150610bee565b5f51602061170b5f395f51905f52546001600160a01b03161415905083610ae4565b634e487b7160e01b5f52604160045260245ffd5b346101b55760403660031901126101b557610c626112da565b6024356001600160a01b038116908190036101b5575f51602061176b5f395f51905f525460ff8160401c16159267ffffffffffffffff821680159081610e07575b6001149081610dfd575b159081610df4575b50610de55767ffffffffffffffff1982166001175f51602061176b5f395f51905f5255610cf39184610db9575b50610ceb611633565b6101dd611633565b610cfb611633565b8015610d74576bffffffffffffffffffffffff60a01b5f5416175f55610d1d57005b68ff0000000000000000195f51602061176b5f395f51905f5254165f51602061176b5f395f51905f52557fc7f505b2f371ae2175ee4913f4499e1f2633a7b5936321eed1cdaeb6115181d2602060405160018152a1005b60405162461bcd60e51b815260206004820152601960248201527f474e444d5374616b696e673a207a65726f2061646472657373000000000000006044820152606490fd5b68ffffffffffffffffff191668010000000000000001175f51602061176b5f395f51905f525584610ce2565b63f92ee8a960e01b5f5260045ffd5b90501585610cb5565b303b159150610cad565b859150610ca3565b346101b5575f3660031901126101b557610e276114ef565b5f51602061172b5f395f51905f525460ff811615610e7e5760ff19165f51602061172b5f395f51905f52557f5db9ee0a495bf2e6ff9c91a7834c1ba4fdd244a5e8aa4e537bd38aeae4b073aa6020604051338152a1005b638dfc202b60e01b5f5260045ffd5b346101b5575f3660031901126101b557610ea56114b7565b610ead6115b4565b610eb56113e8565b600555610ec06113d7565b60075533610f82575b335f52600460205260405f20544210610f6357335f52600a60205260405f20548015610f5457335f818152600a6020526040812081905554610f159183916001600160a01b03166115db565b6040519081527f106f923f993c2149d49b4255ff723acafa1f2d94393f561d3eda32ae348f724160203392a260015f51602061174b5f395f51905f5255005b635b8f50bf60e11b5f5260045ffd5b335f52600460205260405f20546315366c3160e31b5f5260045260245ffd5b610f8b3361135d565b335f52600a60205260405f2055600554335f52600960205260405f2055610ec9565b346101b55760203660031901126101b557600435610fc96114b7565b610fd16115b4565b610fd96113e8565b600555610fe46113d7565b600755336110c6575b80156104f557335f5260016020528060405f2054106110b757335f52600360205260405f2054421061109857335f52600160205260405f20611030828254611312565b905561103e81600254611312565b6002555f5461105990829033906001600160a01b03166115db565b6040519081527f0f5bb82176feb1b5e747e28471aa92156a04d9f3ab9f45f28e2d704232b93f7560203392a260015f51602061174b5f395f51905f5255005b335f52600360205260405f2054630b5c15df60e11b5f5260045260245ffd5b6314429bf560e21b5f5260045ffd5b6110cf3361135d565b335f52600a60205260405f2055600554335f52600960205260405f2055610fed565b346101b55760403660031901126101b5576004356024356111106114b7565b6111186114ef565b6111206113e8565b60055561112b6113d7565b60075581158015611236575b6104f5576301e1338081116111f157816111a96020926111857fde88a922e0d3b88b24e9623efeb464919c6bf9f66857a65e2bfcf2ce87a9433d9560018060a01b035f541630903390611522565b600854814282116111c65761119b915084611332565b6006555b4260075542611350565b600855604051908152a160015f51602061174b5f395f51905f5255005b6108b76111e36111da6111e9944290611312565b6006549061131f565b86611350565b60065561119f565b60405162461bcd60e51b815260206004820152601e60248201527f474e444d5374616b696e673a206475726174696f6e20746f6f206c6f6e6700006044820152606490fd5b508015611137565b346101b5575f3660031901126101b55760206102706113d7565b346101b55760203660031901126101b5576001600160a01b036112796112da565b165f52600a602052602060405f2054604051908152f35b346101b5575f3660031901126101b5575f546040516001600160a01b039091168152602090f35b346101b55760203660031901126101b55760206102706112d56112da565b61135d565b600435906001600160a01b03821682036101b557565b90601f8019910116810190811067ffffffffffffffff821117610c3557604052565b919082039182116104e157565b818102929181159184041417156104e157565b811561133c570490565b634e487b7160e01b5f52601260045260245ffd5b919082018092116104e157565b6001600160a01b03165f8181526004602052604090205442106113d257806113cf915f526001602052670de0b6b3a76400006113bb60405f20546113b56113a26113e8565b855f52600960205260405f205490611312565b9061131f565b04905f52600a60205260405f205490611350565b90565b505f90565b6008548042105f146113cf57504290565b600254801561143f5760055461140b6111da6114026113d7565b60075490611312565b670de0b6b3a7640000810290808204670de0b6b3a764000014901517156104e1576113cf9261143991611332565b90611350565b5060055490565b6001600160a01b031680156114a4575f5160206116eb5f395f51905f5280546001600160a01b0319811683179091556001600160a01b03167f8be0079c531659141344cd1fd0a4f28419497f9722a3daafe3b4186f6b6457e05f80a3565b631e4fbdf760e01b5f525f60045260245ffd5b60025f51602061174b5f395f51905f5254146114e05760025f51602061174b5f395f51905f5255565b633ee5aeb560e01b5f5260045ffd5b5f5160206116eb5f395f51905f52546001600160a01b0316330361150f57565b63118cdaa760e01b5f523360045260245ffd5b6040516323b872dd60e01b5f9081526001600160a01b039384166004529290931660245260449390935260209060648180865af19060015f5114821615611593575b6040525f606052156115735750565b635274afe760e01b5f9081526001600160a01b0391909116600452602490fd5b9060018115166115ab57823b15153d15161690611564565b503d5f823e3d90fd5b60ff5f51602061172b5f395f51905f5254166115cc57565b63d93c066560e01b5f5260045ffd5b916040519163a9059cbb60e01b5f5260018060a01b031660045260245260205f60448180865af19060015f511482161561161b575b604052156115735750565b9060018115166115ab57823b15153d15161690611610565b60ff5f51602061176b5f395f51905f525460401c161561164f57565b631afcd79f60e31b5f5260045ffd5b905f8091602081519101845af480806116d7575b156116925750506040513d81523d5f602083013e60203d82010160405290565b156116b757639996b31560e01b5f9081526001600160a01b0391909116600452602490fd5b3d156116c8576040513d5f823e3d90fd5b63d6bda27560e01b5f5260045ffd5b503d1515806116725750813b151561167256fe9016d09d72d40fdae2fd8ceac6b6234c7706214fd39c1cd1e609a0528c199300360894a13ba1a3210667c828492db98dca3e2076cc3735a920a3ca505d382bbccd5ed15c6e187e77e9aee88184c21f4f2182ab5827cb3b7e07fbedcd63f033009b779b17422d0df92223018b32b4d1fa46e071723d6817e2486d003becc55f00f0c57e16840df040f15088dc2f81fe391c3923bec73e23a9662efc9c229c6a00a26469706673582212206907d9a98b638a1ccea10f42bd17d8866a66cfe4b9418ba074e6baac5714ace764736f6c63430008210033f0c57e16840df040f15088dc2f81fe391c3923bec73e23a9662efc9c229c6a00","linkReferences":{}},"methodIdentifiers":{"UPGRADE_INTERFACE_VERSION()":"ad3cb1cc","authorizedFeeRouters(address)":"f4954b04","claimRewards()":"372500ab","earned(address)":"008cc262","emergencyWithdraw(address,uint256)":"95ccea67","gndm()":"01a248d8","initialize(address,address)":"485cc955","lastApplicableTime()":"23fac263","lastUpdateTime()":"c8f33c91","lockUntil(address)":"eba74ee9","notifyRewardAmount(uint256,uint256)":"246132f9","owner()":"8da5cb5b","pause()":"8456cb59","paused()":"5c975abb","periodFinish()":"ebe2b12b","proxiableUUID()":"52d1902d","receiveGameFees(uint256)":"6900db94","renounceOwnership()":"715018a6","rewardEligibleAt(address)":"892bad16","rewardPerToken()":"cd3daf9d","rewardPerTokenStored()":"df136d65","rewardRate()":"7b0a47ee","rewards(address)":"0700037d","setFeeRouter(address,bool)":"5cfcff6a","stake(uint256)":"a694fc3a","stakedBalance(address)":"60217267","totalStaked()":"817b1cd2","transferOwnership(address)":"f2fde38b","unpause()":"3f4ba83a","unstake(uint256)":"2e17de78","upgradeToAndCall(address,bytes)":"4f1ef286","userRewardPerTokenPaid(address)":"8b876347"},"id":68}