{"abi":[{"type":"constructor","inputs":[],"stateMutability":"nonpayable"},{"type":"function","name":"DOMAIN_SEPARATOR","inputs":[],"outputs":[{"name":"","type":"bytes32","internalType":"bytes32"}],"stateMutability":"view"},{"type":"function","name":"UPGRADE_INTERFACE_VERSION","inputs":[],"outputs":[{"name":"","type":"string","internalType":"string"}],"stateMutability":"view"},{"type":"function","name":"arcGndmReward","inputs":[{"name":"","type":"uint256","internalType":"uint256"}],"outputs":[{"name":"","type":"uint256","internalType":"uint256"}],"stateMutability":"view"},{"type":"function","name":"arcLegendaryDrop","inputs":[{"name":"","type":"uint256","internalType":"uint256"}],"outputs":[{"name":"","type":"bool","internalType":"bool"}],"stateMutability":"view"},{"type":"function","name":"claimPVEReward","inputs":[{"name":"sessionId","type":"uint256","internalType":"uint256"}],"outputs":[],"stateMutability":"nonpayable"},{"type":"function","name":"eip712Domain","inputs":[],"outputs":[{"name":"fields","type":"bytes1","internalType":"bytes1"},{"name":"name","type":"string","internalType":"string"},{"name":"version","type":"string","internalType":"string"},{"name":"chainId","type":"uint256","internalType":"uint256"},{"name":"verifyingContract","type":"address","internalType":"address"},{"name":"salt","type":"bytes32","internalType":"bytes32"},{"name":"extensions","type":"uint256[]","internalType":"uint256[]"}],"stateMutability":"view"},{"type":"function","name":"getPVPQueue","inputs":[],"outputs":[{"name":"","type":"uint256[]","internalType":"uint256[]"}],"stateMutability":"view"},{"type":"function","name":"gndm","inputs":[],"outputs":[{"name":"","type":"address","internalType":"contract IERC20"}],"stateMutability":"view"},{"type":"function","name":"initialize","inputs":[{"name":"owner_","type":"address","internalType":"address"},{"name":"gndmAddress_","type":"address","internalType":"address"},{"name":"trustedResolver_","type":"address","internalType":"address"},{"name":"pveEntryFee_","type":"uint256","internalType":"uint256"},{"name":"pvpMinStake_","type":"uint256","internalType":"uint256"}],"outputs":[],"stateMutability":"nonpayable"},{"type":"function","name":"joinPVP","inputs":[{"name":"sessionId","type":"uint256","internalType":"uint256"},{"name":"cardTokenId","type":"uint256","internalType":"uint256"}],"outputs":[],"stateMutability":"nonpayable"},{"type":"function","name":"owner","inputs":[],"outputs":[{"name":"","type":"address","internalType":"address"}],"stateMutability":"view"},{"type":"function","name":"proxiableUUID","inputs":[],"outputs":[{"name":"","type":"bytes32","internalType":"bytes32"}],"stateMutability":"view"},{"type":"function","name":"pveCampaignProgress","inputs":[{"name":"","type":"address","internalType":"address"}],"outputs":[{"name":"","type":"uint256","internalType":"uint256"}],"stateMutability":"view"},{"type":"function","name":"pveEntryFee","inputs":[],"outputs":[{"name":"","type":"uint256","internalType":"uint256"}],"stateMutability":"view"},{"type":"function","name":"pvpFeePercent","inputs":[],"outputs":[{"name":"","type":"uint256","internalType":"uint256"}],"stateMutability":"view"},{"type":"function","name":"pvpMinStake","inputs":[],"outputs":[{"name":"","type":"uint256","internalType":"uint256"}],"stateMutability":"view"},{"type":"function","name":"renounceOwnership","inputs":[],"outputs":[],"stateMutability":"nonpayable"},{"type":"function","name":"sessions","inputs":[{"name":"","type":"uint256","internalType":"uint256"}],"outputs":[{"name":"player1","type":"address","internalType":"address"},{"name":"player2","type":"address","internalType":"address"},{"name":"card1TokenId","type":"uint256","internalType":"uint256"},{"name":"card2TokenId","type":"uint256","internalType":"uint256"},{"name":"gndmStaked","type":"uint256","internalType":"uint256"},{"name":"battleType","type":"uint8","internalType":"enum GundaniumGame.BattleType"},{"name":"status","type":"uint8","internalType":"enum GundaniumGame.BattleStatus"},{"name":"arcId","type":"uint256","internalType":"uint256"},{"name":"winner","type":"address","internalType":"address"},{"name":"createdAt","type":"uint64","internalType":"uint64"},{"name":"rewardClaimed","type":"bool","internalType":"bool"}],"stateMutability":"view"},{"type":"function","name":"setArcReward","inputs":[{"name":"arcId","type":"uint256","internalType":"uint256"},{"name":"gndmAmount","type":"uint256","internalType":"uint256"},{"name":"legendaryDrop","type":"bool","internalType":"bool"}],"outputs":[],"stateMutability":"nonpayable"},{"type":"function","name":"setPVPFeePercent","inputs":[{"name":"feePercent","type":"uint256","internalType":"uint256"}],"outputs":[],"stateMutability":"nonpayable"},{"type":"function","name":"setPveEntryFee","inputs":[{"name":"fee","type":"uint256","internalType":"uint256"}],"outputs":[],"stateMutability":"nonpayable"},{"type":"function","name":"setPvpMinStake","inputs":[{"name":"minStake","type":"uint256","internalType":"uint256"}],"outputs":[],"stateMutability":"nonpayable"},{"type":"function","name":"setTrustedResolver","inputs":[{"name":"resolver","type":"address","internalType":"address"}],"outputs":[],"stateMutability":"nonpayable"},{"type":"function","name":"settleBattle","inputs":[{"name":"sessionId","type":"uint256","internalType":"uint256"},{"name":"winner","type":"address","internalType":"address"},{"name":"finalHpWinner","type":"uint16","internalType":"uint16"},{"name":"timestamp","type":"uint256","internalType":"uint256"},{"name":"signature","type":"bytes","internalType":"bytes"}],"outputs":[],"stateMutability":"nonpayable"},{"type":"function","name":"startPVE","inputs":[{"name":"cardTokenId","type":"uint256","internalType":"uint256"},{"name":"arcId","type":"uint256","internalType":"uint256"}],"outputs":[{"name":"sessionId","type":"uint256","internalType":"uint256"}],"stateMutability":"nonpayable"},{"type":"function","name":"startPVP","inputs":[{"name":"cardTokenId","type":"uint256","internalType":"uint256"},{"name":"stakeAmount","type":"uint256","internalType":"uint256"}],"outputs":[{"name":"sessionId","type":"uint256","internalType":"uint256"}],"stateMutability":"nonpayable"},{"type":"function","name":"transferOwnership","inputs":[{"name":"newOwner","type":"address","internalType":"address"}],"outputs":[],"stateMutability":"nonpayable"},{"type":"function","name":"trustedResolver","inputs":[],"outputs":[{"name":"","type":"address","internalType":"address"}],"stateMutability":"view"},{"type":"function","name":"upgradeToAndCall","inputs":[{"name":"newImplementation","type":"address","internalType":"address"},{"name":"data","type":"bytes","internalType":"bytes"}],"outputs":[],"stateMutability":"payable"},{"type":"function","name":"withdrawGndm","inputs":[{"name":"amount","type":"uint256","internalType":"uint256"}],"outputs":[],"stateMutability":"nonpayable"},{"type":"event","name":"BattleSettled","inputs":[{"name":"sessionId","type":"uint256","indexed":true,"internalType":"uint256"},{"name":"winner","type":"address","indexed":true,"internalType":"address"}],"anonymous":false},{"type":"event","name":"EIP712DomainChanged","inputs":[],"anonymous":false},{"type":"event","name":"Initialized","inputs":[{"name":"version","type":"uint64","indexed":false,"internalType":"uint64"}],"anonymous":false},{"type":"event","name":"OwnershipTransferred","inputs":[{"name":"previousOwner","type":"address","indexed":true,"internalType":"address"},{"name":"newOwner","type":"address","indexed":true,"internalType":"address"}],"anonymous":false},{"type":"event","name":"PVERewardClaimed","inputs":[{"name":"sessionId","type":"uint256","indexed":true,"internalType":"uint256"},{"name":"player","type":"address","indexed":true,"internalType":"address"},{"name":"gndmAmount","type":"uint256","indexed":false,"internalType":"uint256"}],"anonymous":false},{"type":"event","name":"PVEStarted","inputs":[{"name":"player","type":"address","indexed":true,"internalType":"address"},{"name":"sessionId","type":"uint256","indexed":true,"internalType":"uint256"},{"name":"arcId","type":"uint256","indexed":false,"internalType":"uint256"},{"name":"cardTokenId","type":"uint256","indexed":false,"internalType":"uint256"}],"anonymous":false},{"type":"event","name":"PVPJoined","inputs":[{"name":"player","type":"address","indexed":true,"internalType":"address"},{"name":"sessionId","type":"uint256","indexed":true,"internalType":"uint256"},{"name":"cardTokenId","type":"uint256","indexed":false,"internalType":"uint256"}],"anonymous":false},{"type":"event","name":"PVPStarted","inputs":[{"name":"player","type":"address","indexed":true,"internalType":"address"},{"name":"sessionId","type":"uint256","indexed":true,"internalType":"uint256"},{"name":"cardTokenId","type":"uint256","indexed":false,"internalType":"uint256"},{"name":"stake","type":"uint256","indexed":false,"internalType":"uint256"}],"anonymous":false},{"type":"event","name":"ResolverUpdated","inputs":[{"name":"newResolver","type":"address","indexed":true,"internalType":"address"}],"anonymous":false},{"type":"event","name":"Upgraded","inputs":[{"name":"implementation","type":"address","indexed":true,"internalType":"address"}],"anonymous":false},{"type":"error","name":"AddressEmptyCode","inputs":[{"name":"target","type":"address","internalType":"address"}]},{"type":"error","name":"ECDSAInvalidSignature","inputs":[]},{"type":"error","name":"ECDSAInvalidSignatureLength","inputs":[{"name":"length","type":"uint256","internalType":"uint256"}]},{"type":"error","name":"ECDSAInvalidSignatureS","inputs":[{"name":"s","type":"bytes32","internalType":"bytes32"}]},{"type":"error","name":"ERC1967InvalidImplementation","inputs":[{"name":"implementation","type":"address","internalType":"address"}]},{"type":"error","name":"ERC1967NonPayable","inputs":[]},{"type":"error","name":"FailedCall","inputs":[]},{"type":"error","name":"InvalidInitialization","inputs":[]},{"type":"error","name":"NotInitializing","inputs":[]},{"type":"error","name":"OwnableInvalidOwner","inputs":[{"name":"owner","type":"address","internalType":"address"}]},{"type":"error","name":"OwnableUnauthorizedAccount","inputs":[{"name":"account","type":"address","internalType":"address"}]},{"type":"error","name":"UUPSUnauthorizedCallContext","inputs":[]},{"type":"error","name":"UUPSUnsupportedProxiableUUID","inputs":[{"name":"slot","type":"bytes32","internalType":"bytes32"}]}],"bytecode":{"object":"0x60a080604052346100c257306080525f5160206124e25f395f51905f525460ff8160401c166100b3576002600160401b03196001600160401b03821601610060575b60405161241b90816100c782396080518181816116b201526117560152f35b6001600160401b0319166001600160401b039081175f5160206124e25f395f51905f525581527fc7f505b2f371ae2175ee4913f4499e1f2633a7b5936321eed1cdaeb6115181d290602090a15f80610041565b63f92ee8a960e01b5f5260045ffd5b5f80fdfe6080806040526004361015610012575f80fd5b5f3560e01c90816301a248d814611ca25750806316b95a0b14611c8157806327efbd8714611c645780632aab2f9614611bfe57806331cbe9da14611b76578063330c519914611b555780633644e51514611b3357806346efb4fc146118d25780634f1ef2861461170657806352d1902d146116a0578063715018a6146116395780637d2dcaae14611611578063812892e81461126457806383ae0d2b14610ffa57806383c4b7a314610f2357806383e6e8ec14610cbd57806384b0196e14610c325780638da5cb5b14610bfe5780638f37021914610bc657806392309d0f14610aea5780639284b20c1461082e578063a6b63eb814610337578063ad3cb1cc146102ec578063ae531e1d146102c2578063afb1aac11461026c578063b437eaeb1461024f578063bc0c48d314610232578063c6f9feef14610203578063ec0dcd0a146101955763f2fde38b14610166575f80fd5b346101915760203660031901126101915761018f610182611cc4565b61018a611efa565b611e89565b005b5f80fd5b34610191576020366003190112610191576004356101b1611efa565b601e81116101be57600455005b60405162461bcd60e51b815260206004820152601b60248201527f47756e64616e69756d47616d653a2066656520746f6f206869676800000000006044820152606490fd5b34610191576020366003190112610191576004355f526009602052602060ff60405f2054166040519015158152f35b34610191575f366003190112610191576020600254604051908152f35b34610191575f366003190112610191576020600454604051908152f35b34610191576060366003190112610191576004356044359081151580920361019157610296611efa565b805f52600860205260243560405f20555f52600960205260405f209060ff801983541691161790555f80f35b34610191576020366003190112610191576004355f526008602052602060405f2054604051908152f35b34610191575f3660031901126101915761033360405161030d604082611d56565b60058152640352e302e360dc1b6020820152604051918291602083526020830190611dc8565b0390f35b346101915760a036600319011261019157610350611cc4565b610358611cda565b906044356001600160a01b03811690819003610191575f5160206123c65f395f51905f525460ff8160401c16159267ffffffffffffffff821680159081610826575b600114908161081c575b159081610813575b506108045767ffffffffffffffff1982166001175f5160206123c65f395f51905f52556103ea91846107d8575b506103e261220c565b61018a61220c565b60409283516103f98582611d56565b600981526847756e64617269754d60b81b602082015284519061041c8683611d56565b60018252603160f81b602083015261043261220c565b61043a61220c565b80519067ffffffffffffffff82116106b95781906104655f5160206123465f395f51905f5254611f2d565b601f8111610756575b50602090601f83116001146106d8575f926106cd575b50508160011b915f199060031b1c1916175f5160206123465f395f51905f52555b80519067ffffffffffffffff82116106b95781906104d05f5160206123865f395f51905f5254611f2d565b601f8111610637575b50602090601f83116001146105b9575f926105ae575b50508160011b915f199060031b1c1916175f5160206123865f395f51905f52555b60018060a01b03166001600160601b0360a01b5f5416175f556001600160601b0360a01b6001541617600155606435600255608435600355600a600455600160055561055857005b60207fc7f505b2f371ae2175ee4913f4499e1f2633a7b5936321eed1cdaeb6115181d29168ff0000000000000000195f5160206123c65f395f51905f5254165f5160206123c65f395f51905f52555160018152a1005b0151905086806104ef565b5f5160206123865f395f51905f525f9081528281209350601f198516905b81811061061f5750908460019594939210610607575b505050811b015f5160206123865f395f51905f5255610510565b01515f1960f88460031b161c191690558680806105ed565b929360206001819287860151815501950193016105d7565b828111156104d9575f5160206123865f395f51905f525f52909150601f830160051c7f5f9ce34815f8e11431c7bb75a8e6886a91478f7ffc1dbb0a98dc240fddd76b75602085106106b1575b849392601f0160051c82900391015f5b8281106106a15750506104d9565b5f81830155859450600101610693565b5f9150610683565b634e487b7160e01b5f52604160045260245ffd5b015190508780610484565b5f5160206123465f395f51905f525f9081528281209350601f198516905b81811061073e5750908460019594939210610726575b505050811b015f5160206123465f395f51905f52556104a5565b01515f1960f88460031b161c1916905587808061070c565b929360206001819287860151815501950193016106f6565b8281111561046e575f5160206123465f395f51905f525f52909150601f830160051c7f42ad5d3e1f2e6e70edcf6d991b8a3023d3fca8047a131592f9edb9fd9b89d57d602085106107d0575b849392601f0160051c82900391015f5b8281106107c057505061046e565b5f818301558594506001016107b2565b5f91506107a2565b68ffffffffffffffffff191668010000000000000001175f5160206123c65f395f51905f5255856103d9565b63f92ee8a960e01b5f5260045ffd5b905015866103ac565b303b1591506103a4565b85915061039a565b3461019157602036600319011261019157600435805f52600660205260405f2090600582015460ff81166002811015610ad657610a985760ff60029160081c1661087781611dbe565b03610a5357600782018054336001600160a01b03821603610a0e5760ff8160e01c166109c95760ff60e01b1916600160e01b17905560068201545f818152600860205260409020546004909301549283019283106109b557335f52600760205260405f205481116109a2575b5081610918575b6040519182527f3142c37a8127258c087af8152f031886f1ba551c5168e30fa4437997cf78fe9860203393a3005b5f805460405163a9059cbb60e01b8152336004820152602481018590529160209183916044918391906001600160a01b03165af1801561099757610963915f91610968575b50611e04565b6108ea565b61098a915060203d602011610990575b6109828183611d56565b810190611dec565b8461095d565b503d610978565b6040513d5f823e3d90fd5b335f52600760205260405f2055826108e3565b634e487b7160e01b5f52601160045260245ffd5b60405162461bcd60e51b815260206004820152601e60248201527f47756e64616e69756d47616d653a20616c726561647920636c61696d656400006044820152606490fd5b60405162461bcd60e51b815260206004820152601960248201527f47756e64616e69756d47616d653a206e6f742077696e6e6572000000000000006044820152606490fd5b60405162461bcd60e51b815260206004820152601b60248201527f47756e64616e69756d47616d653a206e6f7420636f6d706c65746500000000006044820152606490fd5b60405162461bcd60e51b815260206004820152601660248201527547756e64616e69756d47616d653a206e6f742050564560501b6044820152606490fd5b634e487b7160e01b5f52602160045260245ffd5b3461019157602036600319011261019157610b03611efa565b5f80545f5160206123665f395f51905f525460405163a9059cbb60e01b81526001600160a01b0391821660048083019190915235602482015292602092849260449284929091165af1908115610997575f91610ba7575b5015610b6257005b60405162461bcd60e51b815260206004820152601e60248201527f47756e64616e69756d47616d653a207769746864726177206661696c656400006044820152606490fd5b610bc0915060203d602011610990576109828183611d56565b81610b5a565b34610191576020366003190112610191576001600160a01b03610be7611cc4565b165f526007602052602060405f2054604051908152f35b34610191575f366003190112610191575f5160206123665f395f51905f52546040516001600160a01b039091168152602090f35b34610191575f36600319011261019157610c8f610c4d611f65565b610333610c58612034565b610c9d60405191610c6a602084611d56565b5f83525f368137604051958695600f60f81b875260e0602088015260e0870190611dc8565b908582036040870152611dc8565b904660608501523060808501525f60a085015283820360c0850152611cf0565b3461019157610ccb36611d23565b815f52600660205260405f206005810190815460ff81166002811015610ad657600103610ee55760081c60ff16610d0181611dbe565b610ea0576001810180546001600160a01b0316610e4f5781546001600160a01b03163314610dfb575f80546004848101546040516323b872dd60e01b815233928101929092523060248301526044820152939160209185916064918391906001600160a01b03165af191821561099757610d8560039387955f91610ddc5750611e04565b60018060a01b0333166001600160601b0360a01b825416179055015561010061ff00198254161790556040519081527fe249544fcdf536a182a3f67470f9502cc38bd70d89a12a03ea2803302ae9d7f160203392a3005b610df5915060203d602011610990576109828183611d56565b8961095d565b60405162461bcd60e51b815260206004820152602660248201527f47756e64616e69756d47616d653a2063616e6e6f74206a6f696e206f776e207360448201526532b9b9b4b7b760d11b6064820152608490fd5b60405162461bcd60e51b815260206004820152602360248201527f47756e64616e69756d47616d653a20616c726561647920686173206f70706f6e604482015262195b9d60ea1b6064820152608490fd5b60405162461bcd60e51b815260206004820152601a60248201527f47756e64616e69756d47616d653a206e6f742070656e64696e670000000000006044820152606490fd5b60405162461bcd60e51b8152602060048201526016602482015275047756e64616e69756d47616d653a206e6f74205056560541b6044820152606490fd5b34610191576020366003190112610191576004355f52600660205260405f2060018060a01b0381541660018060a01b0360018301541691600281015492600382015491600481015460058201549360ff8086169560081c1696600760068501549401549460405197885260208801526040870152606086015260808501526002831015610ad6576101609460ff9360a0860152610fbf81611dbe565b60c085015260e084015260018060a01b03811661010084015267ffffffffffffffff8160a01c1661012084015260e01c161515610140820152f35b346101915761100836611d23565b90811561121f57600254806111ca575b506005549061102682611e5c565b600555600254926040519161103a83611d39565b338352602083015f8152604084019082825260608501905f82526080860197885260a08601925f845260c087016001815260e0880199878b526101008901945f86526101208a019367ffffffffffffffff421685526101408b01955f87528c5f52600660205260405f209b60018060a01b039060018060a01b03905116166001600160601b0360a01b8d5416178c5560018060a01b0390511660018c019060018060a01b03166001600160601b0360a01b8254161790555160028b01555160038a0155516004890155600588019451976002891015610ad65760209a61113e611192976007948d9c60ff80198454169116178255519061113982611dbe565b611e6a565b516006820155935193018054915192516001600160e81b03199092166001600160a01b03949094169390931760a09290921b67ffffffffffffffff60a01b169190911790151560e01b60ff60e01b16179055565b604051918252848201527f2beb437cab0f7996c35525f60a5f33b31a35ffa1cd1222de87fabc22dc22df8160403392a3604051908152f35b5f80546040516323b872dd60e01b81523360048201523060248201526044810193909352602091839160649183916001600160a01b03165af1801561099757611219915f916109685750611e04565b82611018565b60405162461bcd60e51b815260206004820152601a60248201527f47756e64616e69756d47616d653a20696e76616c6964206172630000000000006044820152606490fd5b346101915760a036600319011261019157600435611280611cda565b906044359161ffff83168093036101915760643560843567ffffffffffffffff8111610191573660238201121561019157806004013567ffffffffffffffff811161019157366024828401011161019157845f52600660205260405f20926005840192835492600160ff8560081c166112f881611dbe565b036115cc5761012c83018084116109b5574211611587576113a46113aa9260426113b39560405160208101917f89c62a22a81af55df2c62c2cb0abf62cb0dbf0b86a6852137a9bd70ff7a7ecdc83528d604083015260018060a01b038d169e8f6060840152608083015260a082015260a0815261137660c082611d56565b5190206113816120e1565b906040519161190160f01b83526002830152602282015220926024369201611d78565b90612156565b90929192612190565b6001546001600160a01b039081169116036115435782546001600160a01b03168614908115611510575b50156114cb576007820180546001600160a01b03191686179055805461ff001981166102001790915560ff166002811015610ad657600114611442575b50507f66168482b5f1eb4d2b1b8d055445d6eff2feea284285f0d89d37066d401d1a0d5f80a3005b600401549060045480830290831590848304148117156109b5578360011b93840460021417156109b5576064900482039182116109b5575f805460405163a9059cbb60e01b81526001600160a01b039384166004820152602481019490945260209284926044928492165af18015610997576114c4915f916109685750611e04565b828061141a565b60405162461bcd60e51b815260206004820152601d60248201527f47756e64616e69756d47616d653a20696e76616c69642077696e6e65720000006044820152606490fd5b60ff9150166002811015610ad6576001148061152d575b866113dd565b5060018201546001600160a01b03168514611527565b606460405162461bcd60e51b815260206004820152602060248201527f47756e64616e69756d47616d653a20696e76616c6964207369676e61747572656044820152fd5b60405162461bcd60e51b815260206004820152601d60248201527f47756e64616e69756d47616d653a20726573756c7420746f6f206f6c640000006044820152606490fd5b60405162461bcd60e51b815260206004820152601960248201527f47756e64616e69756d47616d653a206e6f7420616374697665000000000000006044820152606490fd5b34610191575f366003190112610191576001546040516001600160a01b039091168152602090f35b34610191575f36600319011261019157611651611efa565b5f5160206123665f395f51905f5280546001600160a01b031981169091555f906001600160a01b03167f8be0079c531659141344cd1fd0a4f28419497f9722a3daafe3b4186f6b6457e08280a3005b34610191575f366003190112610191577f00000000000000000000000000000000000000000000000000000000000000006001600160a01b031630036116f75760206040515f5160206123a65f395f51905f528152f35b63703e46dd60e11b5f5260045ffd5b60403660031901126101915761171a611cc4565b60243567ffffffffffffffff811161019157366023820112156101915761174b903690602481600401359101611d78565b906001600160a01b037f0000000000000000000000000000000000000000000000000000000000000000163081149081156118b0575b506116f75761178e611efa565b6040516352d1902d60e01b81526001600160a01b0382169290602081600481875afa5f918161187c575b506117d05783634c9c8ce360e01b5f5260045260245ffd5b805f5160206123a65f395f51905f5285920361186a5750823b15611858575f5160206123a65f395f51905f5280546001600160a01b031916821790557fbc7cd75a20ee27fd9adebab32041f755214dbc6bffa90cc0225b39da2e5c2d3b5f80a28051156118405761018f91612237565b50503461184957005b63b398979f60e01b5f5260045ffd5b634c9c8ce360e01b5f5260045260245ffd5b632a87526960e21b5f5260045260245ffd5b9091506020813d6020116118a8575b8161189860209383611d56565b81010312610191575190856117b8565b3d915061188b565b5f5160206123a65f395f51905f52546001600160a01b03161415905083611781565b34610191576118e036611d23565b906003548210611aee575f80546040516323b872dd60e01b8152336004820152306024820152604481018590529160209183916064918391906001600160a01b03165af180156109975761193a915f916109685750611e04565b6005549061194782611e5c565b60055560405161195681611d39565b338152602081015f8152604082019083825260608301915f83526080840187815260a08501946001865260c08101915f835260e08201905f82526101008301965f885261012084019567ffffffffffffffff421687526101408501975f89528c5f52600660205260405f209560018060a01b039060018060a01b03905116166001600160601b0360a01b87541617865560018060a01b03905116600186019060018060a01b03166001600160601b0360a01b8254161790555160028501555160038401555160048301556005820196516002811015610ad657611a519760079461113e9260ff80198454169116178255519061113982611dbe565b600a5490680100000000000000008210156106b9576001820180600a55821015611ada57602093838093600a5f527fc65a7bb8d6351c1cf70c95a316cc6a92839c986682d98bc35f958f4883f9d2a80155604051918252848201527fdd328d2bb767a035568df440f810ab06bf4274e29ac570b387c1a71cfa88555f60403392a3604051908152f35b634e487b7160e01b5f52603260045260245ffd5b60405162461bcd60e51b815260206004820152601c60248201527f47756e64616e69756d47616d653a207374616b6520746f6f206c6f77000000006044820152606490fd5b34610191575f366003190112610191576020611b4d6120e1565b604051908152f35b3461019157602036600319011261019157611b6e611efa565b600435600255005b34610191575f36600319011261019157604051806020600a54918281520190600a5f527fc65a7bb8d6351c1cf70c95a316cc6a92839c986682d98bc35f958f4883f9d2a8905f5b818110611be85761033385611bd481870382611d56565b604051918291602083526020830190611cf0565b8254845260209093019260019283019201611bbd565b3461019157602036600319011261019157611c17611cc4565b611c1f611efa565b600180546001600160a01b0319166001600160a01b039290921691821790557f15cd6d20bba01b3fcb790c73829dd07412cbdf689ef818c96a2505889f3736a25f80a2005b34610191575f366003190112610191576020600354604051908152f35b3461019157602036600319011261019157611c9a611efa565b600435600355005b34610191575f366003190112610191575f546001600160a01b03168152602090f35b600435906001600160a01b038216820361019157565b602435906001600160a01b038216820361019157565b90602080835192838152019201905f5b818110611d0d5750505090565b8251845260209384019390920191600101611d00565b6040906003190112610191576004359060243590565b610160810190811067ffffffffffffffff8211176106b957604052565b90601f8019910116810190811067ffffffffffffffff8211176106b957604052565b92919267ffffffffffffffff82116106b95760405191611da2601f8201601f191660200184611d56565b829481845281830111610191578281602093845f960137010152565b60041115610ad657565b805180835260209291819084018484015e5f828201840152601f01601f1916010190565b90816020910312610191575180151581036101915790565b15611e0b57565b60405162461bcd60e51b815260206004820152602360248201527f47756e64616e69756d47616d653a20474e444d207472616e73666572206661696044820152621b195960ea1b6064820152608490fd5b5f1981146109b55760010190565b90611e7481611dbe565b61ff0082549160081b169061ff001916179055565b6001600160a01b03168015611ee7575f5160206123665f395f51905f5280546001600160a01b0319811683179091556001600160a01b03167f8be0079c531659141344cd1fd0a4f28419497f9722a3daafe3b4186f6b6457e05f80a3565b631e4fbdf760e01b5f525f60045260245ffd5b5f5160206123665f395f51905f52546001600160a01b03163303611f1a57565b63118cdaa760e01b5f523360045260245ffd5b90600182811c92168015611f5b575b6020831014611f4757565b634e487b7160e01b5f52602260045260245ffd5b91607f1691611f3c565b604051905f825f5160206123465f395f51905f525491611f8483611f2d565b80835292600181169081156120155750600114611faa575b611fa892500383611d56565b565b505f5160206123465f395f51905f525f90815290917f42ad5d3e1f2e6e70edcf6d991b8a3023d3fca8047a131592f9edb9fd9b89d57d5b818310611ff9575050906020611fa892820101611f9c565b6020919350806001915483858901015201910190918492611fe1565b60209250611fa894915060ff191682840152151560051b820101611f9c565b604051905f825f5160206123865f395f51905f52549161205383611f2d565b8083529260018116908115612015575060011461207657611fa892500383611d56565b505f5160206123865f395f51905f525f90815290917f5f9ce34815f8e11431c7bb75a8e6886a91478f7ffc1dbb0a98dc240fddd76b755b8183106120c5575050906020611fa892820101611f9c565b60209193508060019154838589010152019101909184926120ad565b6120e9611f65565b602081519101206120f8612034565b602081519101206040519060208201927f8b73c3c69bb8fe3d512ecc4cf759cc79239f7b179b0ffacaa9a75d522b39400f8452604083015260608201524660808201523060a082015260a0815261215060c082611d56565b51902090565b81519190604183036121865761217f9250602082015190606060408401519301515f1a906122c3565b9192909190565b50505f9160029190565b61219981611dbe565b806121a2575050565b6121ab81611dbe565b600181036121c25763f645eedf60e01b5f5260045ffd5b6121cb81611dbe565b600281036121e6575063fce698f760e01b5f5260045260245ffd5b6003906121f281611dbe565b146121fa5750565b6335e2f38360e21b5f5260045260245ffd5b60ff5f5160206123c65f395f51905f525460401c161561222857565b631afcd79f60e31b5f5260045ffd5b905f8091602081519101845af480806122b0575b1561226b5750506040513d81523d5f602083013e60203d82010160405290565b1561229057639996b31560e01b5f9081526001600160a01b0391909116600452602490fd5b3d156122a1576040513d5f823e3d90fd5b63d6bda27560e01b5f5260045ffd5b503d15158061224b5750813b151561224b565b91907f7fffffffffffffffffffffffffffffff5d576e7357a4501ddfe92f46681b20a0841161233a579160209360809260ff5f9560405194855216868401526040830152606082015282805260015afa15610997575f516001600160a01b0381161561233057905f905f90565b505f906001905f90565b5050505f916003919056fea16a46d94261c7517cc8ff89f61c0ce93598e3c849801011dee649a6a557d1029016d09d72d40fdae2fd8ceac6b6234c7706214fd39c1cd1e609a0528c199300a16a46d94261c7517cc8ff89f61c0ce93598e3c849801011dee649a6a557d103360894a13ba1a3210667c828492db98dca3e2076cc3735a920a3ca505d382bbcf0c57e16840df040f15088dc2f81fe391c3923bec73e23a9662efc9c229c6a00a2646970667358221220f28831e9ac37209386b2632378297206971b6b27b91f781ee11e5194e012bec564736f6c63430008210033f0c57e16840df040f15088dc2f81fe391c3923bec73e23a9662efc9c229c6a00","linkReferences":{}},"methodIdentifiers":{"DOMAIN_SEPARATOR()":"3644e515","UPGRADE_INTERFACE_VERSION()":"ad3cb1cc","arcGndmReward(uint256)":"ae531e1d","arcLegendaryDrop(uint256)":"c6f9feef","claimPVEReward(uint256)":"9284b20c","eip712Domain()":"84b0196e","getPVPQueue()":"31cbe9da","gndm()":"01a248d8","initialize(address,address,address,uint256,uint256)":"a6b63eb8","joinPVP(uint256,uint256)":"83e6e8ec","owner()":"8da5cb5b","proxiableUUID()":"52d1902d","pveCampaignProgress(address)":"8f370219","pveEntryFee()":"bc0c48d3","pvpFeePercent()":"b437eaeb","pvpMinStake()":"27efbd87","renounceOwnership()":"715018a6","sessions(uint256)":"83c4b7a3","setArcReward(uint256,uint256,bool)":"afb1aac1","setPVPFeePercent(uint256)":"ec0dcd0a","setPveEntryFee(uint256)":"330c5199","setPvpMinStake(uint256)":"16b95a0b","setTrustedResolver(address)":"2aab2f96","settleBattle(uint256,address,uint16,uint256,bytes)":"812892e8","startPVE(uint256,uint256)":"83ae0d2b","startPVP(uint256,uint256)":"46efb4fc","transferOwnership(address)":"f2fde38b","trustedResolver()":"7d2dcaae","upgradeToAndCall(address,bytes)":"4f1ef286","withdrawGndm(uint256)":"92309d0f"},"id":69}